:020000040800F2
:10000000280C0020790200088B230008B11C00088E
:100010006F230008FD1A0008F333000800000000F9
:10002000000000000000000000000000012C00089B
:10003000011B000800000000EB2A0008652D0008E5
:10004000930200089302000893020008930200083C
:10005000930200089302000893020008930200082C
:10006000930200089302000893020008930200081C
:10007000930200089302000893020008930200080C
:1000800093020008930200089302000893020008FC
:1000900093020008930200089302000893020008EC
:1000A00093020008930200089302000893020008DC
:1000B00093020008612E00089302000893020008D2
:1000C00093020008930200089302000893020008BC
:1000D00093020008B131000893020008930200085F
:1000E000930200089302000893020008930200089C
:1000F000930200089302000893020008930200088C
:10010000930200089302000893020008930200087B
:10011000930200089302000893020008930200086B
:10012000930200089302000893020008930200085B
:1001300000F002F800F090F80AA090E8000C824469
:100140008344AAF10107DA4501D100F085F8AFF246
:10015000090EBAE80F0013F0010F18BFFB1A43F0A5
:100160000103184748A5000068A50000103A24BF05
:1001700078C878C1FAD8520724BF30C830C144BF0C
:1001800004680C607047000000230024002500264E
:10019000103A28BF78C1FBD8520728BF30C148BFEA
:1001A0000B6070476E2900F09383702900F0738113
:1001B000662907F0C883652907F0C583672907F01A
:1001C000C2836129AFF3008003681B0A28BF41F096
:1001D0008001692900F0E480642900F0E18075293C
:1001E00000F0DE806F2900F07D84782900F03F81E7
:1001F000E92900F01784E42900F01484F52900F0BF
:100200001184EF2900F07A84F82900F03E81036818
:10021000DB0928BF41F08001632900F0FB867329C8
:1002200000F00087E32900F00B87F32900F0108726
:10023000002070471FB500F08DFF04000020002152
:1002400006F0AEFA401C60600020002106F092FA31
:10025000E0601FBD10B510BD00F04EFF1146FFF766
:10026000E9FF04F003FF01F027F803B4FFF7F2FF02
:1002700003BC03F0BEF90000094880470948004765
:10028000FEE7FEE7FEE7FEE7FEE7FEE7FEE7FEE746
:10029000FEE7FEE704480549054A064B70470000A3
:1002A000692D00083101000828060020280C0020D4
:1002B0002808002028080020704710B54C1084EA58
:1002C000530404D54042C1F1000138BF491E1B420E
:1002D00004D55242C3F1000338BF5B1E00F0E2F9BF
:1002E00014F0804F04D04042C1F1000138BF491ED4
:1002F00014F0004F04D05242C3F1000338BF5B1E1C
:1003000010BD00007CB51D4616460C00009001D0C3
:100310002044401E074B7B442A46694601903046E4
:1003200000F0EFFA05461CB10020694600F0FCFA27
:1003300028467CBD190600000FB4044910B503AA75
:10034000029800F0FFFA10BC5DF814FB6400002076
:1003500070B5044685690068C10601D5302600E005
:100360002026C00707D070BDD4E901213046904750
:10037000206A401C20626D1EF6D570BD70B5044623
:1003800085690078C00707D170BDD4E9012120201C
:100390009047206A401C20626D1EF6D570BD00009B
:1003A0002DE9F0410646002410687529314616A54E
:1003B00010D000F0F9F9002802DA404213A507E056
:1003C00031688A0701D512A502E0490704D511A5B5
:1003D000012401E000F0F1F900210A2206F12407CE
:1003E00009E0B0FBF2FCB0FBF2F302FB1C00303082
:1003F00078541846491C0028F3D123462A46304633
:10040000BDE8F04100F00BBA000000002D00000034
:100410002B00000020000000F0B40D460188090503
:1004200002D5214C7C4402E01F4C7C440E34002158
:1004300000F1240608E002F00F071209E75D42EA26
:1004400003721B097754491C52EA0307F3D102785F
:100450000023120704D5702D06D009B102231134F0
:100460002246F0BC00F0DBB901231034F8E770B588
:1004700004460D462146106800F09FF902462946C1
:100480002046BDE870400023C6E7D21D22F00703D6
:10049000D3E90023C0E70368126843F02003036038
:1004A0000823C3610023B7E768A000002DE9F05FCF
:1004B000894604464FF0000ADFF874B1FB44C0F8E7
:1004C00020A02046E1688847002874D0252806D05F
:1004D000D4E901219047206A401C2062F1E7002600
:1004E0005F462046E16888472028054607DB312D16
:1004F00005D2781910F8200C08B10643F1E7B007CF
:1005000001D526F00406C4F81CA00027C4F818A0E2
:100510002A2D09D0284603F065F838B304EB870884
:10052000303DC8F8185019E059F8041B204604EB78
:1005300087029161E1688847012F054618D1E0697B
:10054000002820DA26F020061DE0D8F8180000EB7D
:10055000800005EB40003038C8F818002046E168FC
:100560008847054603F03EF80028EED1012F0AD057
:100570002E2D08D12046E16888477F1C0546022FB2
:1005800046F02006C4DBA069002803DA404246F0AA
:100590000106A061F00701D026F010066C2D0BD0EB
:1005A000682D09D04C2D39D06A2D35D0742D35D019
:1005B0007A2D33D016E038E0E1682F462046884790
:1005C000B842054609D16C2F26D04FF48060E1680F
:1005D000064320468847054604E06C2F1AD04FF4A6
:1005E000807006430DB3A5F14100192802D82035CB
:1005F00046F400664A462946204626604E46FFF7E6
:10060000D1FD80B101280BD0F61D26F0070000F1C6
:10061000080956E74020E4E78020D8E70020D6E725
:1006200006F104094DE7284652E7206ABDE8F09F2D
:10063000F89F000040EA010310B59B070FD1042A80
:100640000DD310C808C9121F9C42F8D020BA19BA9D
:10065000884201D9012010BD4FF0FF3010BD1AB102
:10066000D30703D0521C07E0002010BD10F8013B57
:1006700011F8014B1B1B07D110F8013B11F8014B7E
:100680001B1B01D1921EF1D1184610BD02F0FF03D1
:1006900043EA032242EA024200F03CBA7047704744
:1006A0007047704753EA020C00F069802DE9F04B67
:1006B0004FF00006002B1FBFB3FA83F503FA05F4D1
:1006C00024FA05F65E4012BF1643B2FA82F502FA2A
:1006D00005F4C5F120051EBF22FA05FC44EA0C040E
:1006E000203556EA044C4FEA144418BF641C4FF0FE
:1006F00000084FF00009904271EB030C39D3002938
:1007000019BFB1FA81F701FA07F6B0FA80F700FADB
:1007100007F6C7F120071EBF20FA07FC46EA0C06C1
:100720002037B6FBF4FCA7EB0507103F07F01F0BC3
:10073000CBF120060CFA0BFB2CFA06F644BFB346AD
:100740000026202FA4BF5E464FF0000B5BEA060C8C
:1007500008BF4FF0010B19EB0B09ABFB027C48EB18
:100760000608C01B06FB02CC0BFB03CC71EB0C0193
:10077000C1E70B46024641464846BDE8F08B13B53B
:100780004FF000004FF00001AFF30080BDE81C40C7
:10079000704710B500F0DEF9006810BD10B50446D2
:1007A00000F0D8F9046010BD09684A0501D540B2CF
:1007B0007047C905FCD500B2704709684A0501D5E4
:1007C000C0B27047C905FCD580B2704770B50C4601
:1007D0000546012A05D02878800600D5EA6900235D
:1007E00002E0012305E05B1C934202D2E05C00289A
:1007F000F9D1A869E618C01AA861286A18442862C5
:100800002846FFF7A5FD04E0D5E9012114F8010B06
:100810009047B442F8D32846FFF7B0FD70BD2DE9EC
:10082000F0470D4699469246044600F124080168B7
:10083000880604D5E06921F01001216000E0012064
:10084000A84201DD471B00E00027A1697A1902EBED
:100850000900081AA0612078C00602D42046FFF7DC
:1008600077FD002608E0D4E901211AF80600904738
:10087000206A401C761C20624E45F4DB2078C006BE
:100880000AD52046FFF764FD06E0D4E901213020B7
:100890009047206A401C2062381EA7F10107F4DC53
:1008A00007E0D4E9012118F805009047206A401CB0
:1008B0002062281EA5F10105F3DC2046FFF75EFD4E
:1008C0002078000602D50220BDE8F0870120FBE772
:1008D00011680268006A530501D508700AE0D30563
:1008E00001D5088006E0130603D5C217C1E900024E
:1008F00000E008600120704701694A1C0261087825
:10090000704700B58FB0CDE901310021059105494F
:100910007944CDE9031011466846FFF7C7FD0FB0D3
:1009200000BD0000E5FFFFFF0A6802F8010B0A6046
:100930007047D1E900239A4202D2531C0B60107019
:1009400070470000074B70B50D467B44FFF7D9FF99
:100950000446284600F080FB10B14FF0FF3070BD18
:10096000204670BD574000002DE9FF5F15468A46BE
:100970000446DFF8AC80F8440027D8E900103E4672
:10098000CDE9001010E03AF816106A4602A800F00F
:1009900067FB411C07D02178890603D5E269391825
:1009A00091420DD80744761C2078800602D5E06974
:1009B000B84205DDAE42E6DB3AF816000028E2D187
:1009C000A069C01BA0612046FFF7C2FCD8E9001057
:1009D000CDE90010002017E03AF818106A4602A886
:1009E00000F03EFBB0F1FF3F81460BD000250DF13A
:1009F000080B05E0D4E901211BF8050090476D1CA8
:100A00004D45F7D308F10100B0428046E4DB206A8F
:100A1000384420622046FFF7B1FCBDE8FF9F00008C
:100A2000A69B00002DE9F0418046D21D22F007026E
:100A30000025D2E90002F52915A614D0011E72F195
:100A4000000106DA0023D0EB030063EB020211A6DB
:100A500008E0D8F800108B0701D50FA602E049077F
:100A600001D50EA601251146002408F1240704E053
:100A700000F074F830323A55641C50EA0102F7D1A4
:100A80002B46324621464046BDE8F041FFF7C7BE3F
:100A9000000000002D0000002B00000020000000DE
:100AA00030B4002100F1240408E002F00705D20868
:100AB000303542EA4372DB086554491C52EA0305AB
:100AC000F3D10468002310A2250708D504F0200400
:100AD0000C4304D0C46901230CA2641EC46130BC61
:100AE000FFF79DBE10B5044621461068FFF765FE6E
:100AF00002462046BDE810400023D1E7D21D22F077
:100B00000701D1E90023CBE700000000300000001E
:100B10004FF000020429C0F0128010F0030C00F026
:100B2000C182CCF1040CBCF1020F18BF00F8012BFC
:100B3000A8BF20F8022BA1EB0C0100F0B3BA5FEACA
:100B4000C17C24BF00F8012B00F8012B48BF00F83E
:100B5000012B704700487047C405002030B5B0F144
:100B60000A024FEA900E71F100034EEA817EB0EB6B
:100B70000E0061EB91014FEA101E4EEA017E10EB70
:100B80000E0041EB11114FEA102E4EEA016E10EBF0
:100B90000E0041EB11214FEA104E4EEA014E10EBD0
:100BA0000E0041EB1141401841F100014FEAD00025
:100BB00040EA41704FEAD10110EB80054FEA810411
:100BC00044EA907444EB01046D1944EB0404521B95
:100BD000A3414FF0000348BF0A3200D530BD401C8E
:100BE00041F1000130BD70472DE9FF4F0C461E4614
:100BF0004FF0FF378BB0D2E90001DDF860800A903A
:100C00008A46C1F30A5505B93D46002108464FF012
:100C10000000BAF1000F00F4400005DA00EB80009C
:100C20004FF4400101EA50004FEA9059B9F1010F29
:100C300000DDB9460A9850EA4A000ED044F610503A
:100C4000A5F2FF3545432F14B8F1000F1ED07542B1
:100C5000291E1EDDC9F100021CE0B8F1010F4FF0A2
:100C6000000001D0302103E0F24305E02154401C94
:100C7000B042FBDB30460022002121540B99C1F821
:100C80000880C1E900200FB0BDE8F08FBD1B6D1CCE
:100C9000DEE74A4600DA694206A800F09FFA06AB92
:100CA00093E8070003AB83E8070050460A9900F079
:100CB0004DFB8DE80700A0F500501F380090039809
:100CC000002D09DD42F21F014A46084403A90390A2
:100CD000684600F0ACFD08E0A0F500504A461F3819
:100CE00003A90390684600F0B6FD8DE807000004F4
:100CF000000C03D04FF0FF30410800E01046B8F17F
:100D0000000F03D00022009215461EE0751E05D488
:100D1000FFF724FF303262556D1EF9D5B34601222C
:100D2000084302D000227F1C04E02078302801D143
:100D300000227F1E002A099786D01DE0112D07DAB8
:100D4000FFF70CFF303262556D1C50EA0102F5D1FD
:100D5000084302D00098C8B10EE00021681E05E0EB
:100D6000235C625C63542254401E491C8142F7DBC1
:100D7000AB46A81B401E0990002004F80B000B98FE
:100D8000099AC0F80880C0E9002B7CE711264FF0D3
:100D9000000859E72DE9F04F88460446D21D22F09D
:100DA000070191B0D1E90001CDE90A0102F09EFBF3
:100DB00002460B98C00F01D02D2007E02068810764
:100DC00001D52B2002E0202101EAC000032A09906E
:100DD00001D0072A05DB03464146204600F0BEF954
:100DE0000BE12078800601D5E06900E00620B8F12B
:100DF000650F814606D0B8F1660F18D0B8F1670FBD
:100E000070D131E00020B9F1110F009001DB112306
:100E100001E009F101030AAA01A90CA8FFF7E4FE09
:100E2000DDE90C70002609F10105834647E0012049
:100E30004B4600904FF000470AAA01A90CA8FFF703
:100E4000D3FEDDE90DB00C995D46002610B909F11D
:100E500001000D18B9EB050003D4C0F1FF3609F10C
:100E60000105A5EB09002BE0B9F1010F01DA4FF004
:100E700001090020B9F1110F0090484601DD11234E
:100E800000E003460AAA01A90CA8FFF7ADFEDDE9C0
:100E90000C704D4600268346207800070AD4AB45E7
:100EA00000DA5D4601A8012D04DD411911F8011C8D
:100EB000302907D04F4502DA17F1040F04DA012078
:100EC00082460FE06D1EEEE7002F02DCED1B3E4474
:100ED00003E0781CA84200DD7D1CB81B00F1010A6C
:100EE0004FF000472078000703D4AA4501DB4FF0FC
:100EF000FF3A0021B7F1004F0DF143088DF8431080
:100F000024D002202B23002F01DA7F422D230A2137
:100F1000021EA0F1010000DC5FB197FBF1FC97FB22
:100F2000F1F201FB1C7C17460CF1300C08F801CDE6
:100F3000EEE7A8F1010003702188090501D54521DC
:100F400000E06521A0F1010800F8011C09980FA933
:100F5000A1EB0807FF1D00B10120411901EBEA7068
:100F6000A1693844081A401EA0612078C00602D446
:100F70002046FFF7EDF9099828B1D4E901219047FF
:100F8000206A401C20622078C00622D52046FFF748
:100F9000DFF91EE0002E04DBB34502DD01A8805D11
:100FA00000E03020D4E901219047206A401C2062F3
:100FB000761CAAF101005FEA000A0AD100F0CAF823
:100FC000C0680168405CD4E901219047206A401C58
:100FD0002062281EA5F10105DCDC07E0D4E901212F
:100FE00018F8010B9047206A401C2062381EA7F1B8
:100FF0000107F3DC2046FFF7C1F9032011B043E6F7
:1010000010B5436913B1AFF3008001E0FFF7DEFBD9
:10101000012010BD127800F124010A7000224A70EC
:101020000122EDE711684FF0FF32E9E710B543699F
:1010300013B1AFF3008001E0FFF796FC012010BD73
:10104000128800F1240182840022C2840122EDE78B
:1010500011684FF0FF32E9E7007B00F08000704735
:1010600070B516460C46054600F06CF8036893F818
:101070000101012806D0FF2C0FD8185D68B10120AE
:101080002C7070BDD3F807013246214603F20713D6
:1010900003442846BDE8704018474FF0FF3070BD4C
:1010A0004FF0000200B5134694469646203922BF01
:1010B000A0E80C50A0E80C50B1F12001BFF4F7AF4C
:1010C000090728BFA0E80C5048BF0CC05DF804EB2E
:1010D000890028BF40F8042B08BF704748BF20F89C
:1010E000022B11F0804F18BF00F8012B7047000051
:1010F00000487047C40500207546FFF7F9FFAE466B
:1011000005006946534620F00700854618B020B513
:10111000FFF7C0F8BDE820404FF000064FF0000791
:101120004FF000084FF0000B21F00701AC46ACE88F
:10113000C009ACE8C009ACE8C009ACE8C0098D46FC
:101140007047000010B500F005F8001D10BD00BF8D
:101150005156000000487047E40500202DE9F04199
:101160001F46044603260168072A01F4006004DBD9
:1011700008B116A505E016A503E008B115A500E025
:1011800015A521F010002060A069C01EA0610FB15C
:10119000401EA0612046FFF7DBF84FB1D4E90121E2
:1011A00038469047206A401C2062C01C206206E03E
:1011B000206AFAE7D4E9012115F8010B9047761E61
:1011C000F8D22046FFF7DAF8BDE8F0814E414E0034
:1011D0006E616E00494E4600696E66002DE9F0476B
:1011E000814616468AB0334878440DC88DE80D0014
:1011F00030487844801C03AC0DC884E80D0041F6EB
:101200009B300844372190FBF1F290FBF1F5A5F1FA
:10121000800501FB12041B3C02D56442012000E062
:101220000020DFF890A080460027FA44AAF1BE0A09
:101230000DE0E00709D03246684607EB47010AEBAC
:10124000810100F008FB8DE8070064107F1C002C72
:10125000EFD1184F7F44AC3F18E0E80714D007EBFC
:1012600004100DF1180A90E80E008AE80E00C0681C
:10127000F04201D198190890324606A903A800F05F
:10128000EAFA03AB83E807006D10641C002DE4D17B
:1012900032466946B8F1000F03A802D000F0C7FA41
:1012A00001E000F0D8FAC9E90001C9F808200AB045
:1012B000BDE8F0875894000010B50446AFF30080F5
:1012C0002046BDE81040FEF7D0BF00004FF0013CC3
:1012D00050F8042B51F8043B9A4221D1A2EB0C03A5
:1012E000934313EACC1317D150F8042B51F8043B65
:1012F0009A4215D1A2EB0C03934313EACC130BD102
:1013000050F8042B51F8043B9A4209D1A2EB0C038C
:10131000934313EACC13DBD04FF00000704700BFBB
:10132000D01A01BAB1FA81F101F0180122FA01F0E4
:10133000CB40C1F12001DBB2C0B2C01A2CFA01F3DC
:10134000D11A914311EAC311E6D170475FEA400C0C
:1013500008BF91F0000F4FEA8C234FEAC12243EA05
:1013600051514FEA1C5018BF00F5F0404FEA3000D1
:1013700018BF41F000415FEA6C5C00F02980BCF1CD
:10138000FF3F08BF40F080407047130C06BF1204B7
:101390004FF0100C4FF0000C130E04BF12020CF1B2
:1013A000080C130F04BF12010CF1040C930F04BFBF
:1013B00092000CF1020CD30F04BF52000CF1010C8F
:1013C00011464FF00002A0F11F00A0EB0C00704787
:1013D00011F0004F08BF704731F000413FF4D5AF26
:1013E0000B0C06BF09044FF0100C4FF0000C0B0E55
:1013F00004BF09020CF1080C0B0F04BF09010CF12A
:10140000040C8B0F04BF89000CF1020CCB0F04BF3E
:1014100049000CF1010CCCF12003A0EB0C0022FAE6
:1014200003F302FA0CF241EA030100F101007047F4
:1014300020F07F4C80EA030023F07F47ACEB0703EA
:1014400003F57C5300F0004003F1FF032DE98049D0
:101450004FEA154B09B44FEA144325EA0B4E24EA30
:1014600003480FF2042606EB132749083E785FEA8B
:10147000320203FB0667C7F5000707FB06F64FEAD3
:1014800054374FEAD64606F1020607FB066CCCF14C
:10149000005C4FEA1C472CEA074C07FB06F40CFBE8
:1014A00006F504EB15464FEA961634BF00204FF0C0
:1014B00000404FEAD13706FB07FC4FEA1C4C0CFBFF
:1014C0000BF7D21B03FB0CF761EB07010CFB0EF7CC
:1014D000B0EB074072EB17420CFB08F734BFA2EBEE
:1014E0000742B2EB074261EB17414FEA0C444FEA67
:1014F000910706FB07FC4FEA1C4C0CFB0BF7B0EB0B
:10150000C74072EB573203FB0CF734BFA2EBC74264
:10151000B2EBC74261EB57310CFB0EF7B0EBC700E3
:1015200072EB57720CFB08F734BFA2EBC702B2EBA9
:10153000C70261EB5771039F4FEA816141EA921143
:1015400004EBCC044FEAD1374FEA826206FB07FC7A
:1015500042EA90124FEA80604FEA1C4C0CFB0BF7FA
:10156000D21B03FB0CF761EB07010CFB0EF7B0EB92
:10157000074072EB17420CFB08F734BFA2EB07429F
:10158000B2EB074261EB17414FEA8C554FEA9107E6
:1015900004EB9C2406FB07FC4FEA1C4C0CFB0BF7EE
:1015A000B0EBC74072EB573203FB0CF734BFA2EB32
:1015B000C742B2EBC74261EB57310CFB0EF7B0EB01
:1015C000C70072EB57720CFB08F734BFA2EBC702DF
:1015D000B2EBC70261EB577115EB4C254FEA816105
:1015E00041EA92114FEA82624FEAD13742EA901201
:1015F00006FB07FC44F100044FEA80604FEA1C4CF4
:101600000CFB0BF7D21B03FB0CF761EB07010CFB88
:101610000EF7B0EB074072EB17420CFB08F734BF34
:10162000A2EB0742B2EB074261EB174115EB1C1529
:101630004FEA813141EA92414FEA823242EA9042D6
:101640004FEA80304FEA0C7644F1000448EA034345
:101650004EEA0B484FF0000EB2EB080C71EB03079B
:1016600024BF624639464EEB0E0E4FF0000B0018B9
:10167000524149414BEB0B0BB2EB080C71EB0307EA
:101680007BF1000B24BF624639464EEB0E0E4FF045
:10169000000B0018524149414BEB0B0BB2EB080C0D
:1016A00071EB03077BF1000B24BF624639464EEB1A
:1016B0000E0E51EA020718BF46F0010616EB0E7631
:1016C00055F1000254F1000103D5BDE88901BDE8E0
:1016D0000088BDE88901BDE80048B619524141EBD8
:1016E0000101A3F10103704780807F7E7D7C7B7ABE
:1016F0007978777676757473727171706F6E6E6DBE
:101700006C6C6B6A6A696868676666656464636363
:1017100062616160605F5F5E5E5D5D5C5C5B5B5AE9
:101720005A59595858575756565555555454535356
:1017300052525251515050504F4F4F4E4E4D4D4DB1
:101740004C4C4C4B4B4B4A4A4A49494948484847FC
:10175000474747464646454545444444444343433A
:101760004342424242414141002B26D4770021D0DE
:101770001CB54FEA370703B44FF010004FF01001CB
:101780004FF000000FBCBDE810400BF1010BBBF1A6
:10179000010F08BF5FEA170722BF12F1010211F122
:1017A00001014FF0004143F1000300F0004043EA23
:1017B00000007047F9D35708DAE746EA064613F106
:1017C000400F4FEA16461FDD13F1200FDFBF16430F
:1017D0000A46002120335B42C8D0C3F1200746EA05
:1017E000064602FA07F74FEA164646EA0706C3F12D
:1017F000200722FA03F201FA07F721FA03F14FF06A
:10180000000342EA0702B1E746EA020646EA064654
:101810004FEA164646EA0106BCBF46EA0646360CC3
:101820004FF000034FF000024FF000019EE72DE95A
:10183000C048934630B491E8380007C831EA400CFC
:1018400048BF34EA430C03D5FFF7F2FDFFF78CFFE6
:10185000F0BCBDE800882DE9C048934630B491E85B
:10186000380007C810F0804F08BF13F0804F03D135
:1018700000F005F8FFF778FFF0BCBDE8008820F025
:101880007F4780EA030023F07F4C07EB0C03A3F5AE
:101890007C5300F00040A3F1FE0392F0000F00F033
:1018A000B38095F0000F00F077802DE901494FEAF1
:1018B00011404FEA144621EA004800FB06FC24EAE6
:1018C000064708FB06F607FB08F800FB07F718EBCE
:1018D00006484CEB164C4FEA124B18EB07484FEA00
:1018E00015464CEB174022EA0B4E0BFB06FC25EA93
:1018F00006470EFB06F607FB0EFE0BFB07F71EEB7B
:10190000064E4CEB164C4FF000061EEB074E4CEB10
:10191000174B18EB0B0840F1000018EB0E0B58EBBF
:10192000000840F100008F1A4FF000013CBFC9438E
:10193000661B14BFB5EB040C00213CBFC943F61B6A
:101940004FEA17444EEA8E0E27EA04454FEA1C4739
:1019500004FB07622CEA074C05FB07F70CFB05F6B6
:1019600004FB0CFC16EB074642EB174216EB0C4649
:1019700042EB1C421BEB060658EB0202414146EAD1
:101980009E0601D5BDE80189B619524141EB01011E
:10199000A3F10103BDE801894FEA14454FEA11475D
:1019A00024EA054621EA074C05FB07F406FB07F786
:1019B0000CFB06F105FB0CFC11EB074144EB174453
:1019C0004FEA124711EB0C4144EB1C4422EA074C4E
:1019D00005FB07F206FB07F70CFB06F605FB0CFC04
:1019E00016EB074642EB174216EB0C4642EB1C4542
:1019F0006A1854F1000148BF7047B619524141EBD3
:101A00000101A3F10103704795F0000F37D04FEAB1
:101A100011424FEA144721EA024624EA074C02FB2E
:101A200007F106FB07F70CFB06F402FB0CFC14EBBA
:101A3000074441EB17414FEA154714EB0C4441EBC7
:101A40001C4125EA074C02FB07F506FB07F70CFBD8
:101A500006F602FB0CFC16EB074645EB174516EBAA
:101A60000C4645EB1C42121951F1000148BF70476A
:101A7000B619524141EB0101A3F1010370474FEA4E
:101A800014454FEA114724EA054621EA074C05FBB5
:101A900007F106FB07F70CFB06F24FF0000605FB0B
:101AA0000CFC12EB074241EB174112EB0C4251EBDD
:101AB0001C4148BF7047921841EB0101A3F101039B
:101AC0007047000008B50121082001F01FF84FF40D
:101AD0008070ADF8000010208DF8030003208DF811
:101AE00002006946044800F00CF84FF48071024887
:101AF00000F0DCF808BD0000000C014000BFFEE76C
:101B000070472DE9F0410246002500260020002301
:101B10000024002791F803C00CF00F0591F803C0D2
:101B20000CF0100CBCF1000F03D091F802C04CEA8D
:101B3000050591F800C0BCF1000F31D014680020F9
:101B40002BE04FF0010C0CFA00F3B1F800C00CEAE6
:101B500003069E4220D183004FF00F0C0CFA03F7CE
:101B6000BC4305FA03FC4CEA040491F803C0BCF141
:101B7000280F06D14FF0010C0CFA00FCC2F814C07B
:101B80000AE091F803C0BCF1480F05D14FF0010CF9
:101B90000CFA00FCC2F810C0401C0828D1D3146015
:101BA000B1F800C0BCF1FF0F34DD546800202EE016
:101BB00000F1080C4FF0010808FA0CF3B1F800C06E
:101BC0000CEA03069E4221D183004FF00F0C0CFA61
:101BD00003F7BC4305FA03FC4CEA040491F803C084
:101BE000BCF1280F05D100F1080C08FA0CF8C2F876
:101BF000148091F803C0BCF1480F07D100F1080C24
:101C00004FF0010808FA0CF8C2F81080401C0828B0
:101C1000CED35460BDE8F081F0B50A46002300241D
:101C20000021002500F00046B6F1004F02D11D4E04
:101C3000F16901E01B4E7168C0F3034583B200F403
:101C40004016B6F5401F08D121F07061154E766838
:101C500026F07066134F7E6012E000F48016B6F531
:101C6000801F06D1032606FA05F4A14341F07061F6
:101C700006E0460D360103FA06F6B14341F0706105
:101C800022B1460D360103FA06F6314300F0004654
:101C9000B6F1004F02D1034EF16101E0014E7160D7
:101CA000F0BD0000000001404161704701617047D4
:101CB00000BFFEE710B508210A48FFF7F7FF022131
:101CC0000948FFF7F3FF00F03DF808210548FFF74A
:101CD000EBFF00F037F802210348FFF7E5FF00F0C3
:101CE00031F810BD001001400008014010B5082176
:101CF0000648FFF7D9FF02210548FFF7D7FF00F09C
:101D000021F808210148FFF7D1FF10BD0010014064
:101D10000008014010B508210848FFF7C7FF00F090
:101D200011F802210648FFF7C1FF00F00BF802216D
:101D30000348FFF7B9FF00F005F810BD001001409F
:101D400000080140032000BF011EA0F10102D0B233
:101D5000FAD1704708B50121442000F0D7FE1C20BD
:101D6000ADF8000048208DF8030069460648FFF7EB
:101D7000C8FE0120ADF8000028208DF80300694658
:101D80000248FFF7BEFE08BD0018014000080140F0
:101D90002DE9FC4104460D4616466B4606223B21C2
:101DA000682000F00EFA0746BFB99DF801009DF8C3
:101DB000001040EA012000B220809DF803009DF849
:101DC000021040EA012000B228809DF805009DF82D
:101DD000041040EA012000B230803846BDE8FC81A2
:101DE0002DE9FC4104460D4616466B46062243216A
:101DF000682000F0E6F90746BFB99DF801009DF89C
:101E0000001040EA012000B220809DF803009DF8F8
:101E1000021040EA012000B228809DF805009DF8DC
:101E2000041040EA012000B230803846BDE8FC8151
:101E300010B500200E4908600E48006820F470407C
:101E40000C4908600846006840F4405008600020D3
:101E50000949C1F8AC0100F011F8012004490860FB
:101E600000F00CF800200449C1F8A80110BD0000E2
:101E7000A8812142040C01400080214210B50220BB
:101E800001F090FF10BD000008B50121082000F00E
:101E90003DFE4FF44060ADF8000010208DF80300C7
:101EA00003208DF8020069460448FFF72AFE4FF42C
:101EB00040610248FFF7FAFE08BD0000000C014037
:101EC00010B500200E4908600E48006820F47040EC
:101ED0000C4908600846006840F440500860012042
:101EE0000949C1F8AC01FFF7C9FF012004490860A6
:101EF000FFF7C4FF00200449C1F8A80110BD00008D
:101F0000A8812142040C01400080214270B50546A1
:101F100000241648006820F4704014490860084600
:101F2000006840F400400860002614E000201049DA
:101F30000860FFF7A3FF01200E49C1F8A801600661
:101F4000040E0B487C38006808B1601CC4B2FFF76F
:101F500095FF701CC6B2082EE8DB15B9FFF7B0FF7D
:101F600001E0FFF765FF204670BD0000040C014052
:101F7000A88121420080214270B5044612480068C1
:101F800020F47040104908600846006840F4405052
:101F9000086000200D490860002512E0E0090B49A7
:101FA000091D08606006040E01200949C1F8A80156
:101FB000FFF764FF002005490860FFF75FFF681C1A
:101FC000C5B2082DEADB70BD040C0140A881214296
:101FD0000080214210B50E48006820F470400C4982
:101FE00008600846006840F4405008600120094934
:101FF00008600949C1F8A801FFF740FF0020054922
:102000000860FFF73BFF00200349C1F8A80110BD9D
:10201000040C0140AC8121420080214210B50E48E1
:10202000006820F470400C4908600846006840F4DD
:10203000405008600020094908600949C1F8AC0116
:10204000FFF71CFF0120054908600549C1F8AC01F4
:10205000FFF714FF10BD0000040C0140A8812142CD
:102060000080214210B500241448006820F470401C
:10207000124908600846006840F4004008600120EA
:102080000F490860FFF7FAFE01200E49C1F8A801C8
:10209000FFF7F4FE07E0601CC4B2FA2C03DDFFF783
:1020A000BDFF012010BD0648803800680028F2D12D
:1020B0000349091F086000BFF4E70000040C014059
:1020C000AC8121420080214238B50121084600F050
:1020D0001DFD0121042000F019FD4FF40040ADF872
:1020E000000010208DF8030003208DF802006946DF
:1020F0002248FFF706FD01212148FFF78DFD002052
:1021000020490860FFF7C0FE80216B2000F0DDF859
:10211000642001F021FE00216B2000F0D6F803209E
:1021200000F091F8002000F086F8322000F0B0F8BE
:102130000021382000F0C9F800216A2000F0C5F81D
:102140000021232000F0C1F88021372000F0BDF8E5
:10215000752000F019F80446682C0BD101216B2082
:1021600000F0B3F800216C2000F0AFF8322000F04E
:102170008FF801E0012038BD0020FCE70008014095
:1021800000023000BC01214270B50446FFF722FF77
:10219000D020FFF7F1FEFFF765FF2046FFF7ECFECA
:1021A000FFF760FFFFF716FFD120FFF7E5FEFFF70F
:1021B00059FF0020FFF7AAFE0546FFF72FFF28462C
:1021C00070BD2DE9F04106460F4614461D46FFF747
:1021D00001FF002141EA4601C8B2FFF7CDFEFFF73B
:1021E00041FF20B1FFF71AFF0120BDE8F08138461A
:1021F000FFF7C2FEFFF736FFFFF7ECFE012101EB10
:102200004601C8B2FFF7B8FEFFF72CFF0DE0012C26
:1022100004D10020FFF77AFE287003E00120FFF7C9
:1022200075FE2870601EC4B26D1C002CEFD1FFF744
:10223000F5FE0020D9E710B50446E006010E1C208B
:1022400000F043F810BD10B50446E006010E1B2057
:1022500000F03BF810BD70B504460025BC2C01DB36
:10226000012510E0622C01DB02250CE02A2C01DBA9
:10227000032508E0142C01DB042504E00A2C01DB13
:10228000052500E0062529461A2000F01EF870BD3D
:1022900070B50446B4F57A7F01DD4FF47A74042CEE
:1022A00000DA04244FF47A7090FBF4F0401EC5B2BB
:1022B0002946192000F009F80546264604EBD67198
:1022C000C1F34F00FFF7C7FF70BD70B505460C4660
:1022D000FFF780FED020FFF74FFEFFF7C3FE18B1D7
:1022E000FFF79CFE012070BD2846FFF745FEFFF773
:1022F000B9FE2046FFF740FEFFF7B4FE18B1FFF726
:102300008DFE0120EFE7FFF789FE0020EBE72DE9C6
:10231000F04105460E4617469846FFF75BFE002142
:1023200041EA4501C8B2FFF727FEFFF79BFE20B147
:10233000FFF774FE0120BDE8F0813046FFF71CFE78
:10234000FFF790FE00240CE018F80400FFF714FEDD
:10235000FFF788FE18B1FFF761FE0120EBE7601C74
:10236000C4B2BC42F0DBFFF759FE0020E3E700BF38
:10237000FEE710B504460021204605F033FA01D8E7
:10238000204610BD84F00040FBE7704770B5002187
:1023900000230F22C47804B3154C246804F4E064CD
:1023A000C4F5E064210AC1F10403CA40447804FA88
:1023B00003F184781440214309010E4C0678A1559D
:1023C000047804F01F050124AC4005786D11AD00C0
:1023D00005F1E025C5F8004109E0047804F01F0587
:1023E0000124AC40044D0678761145F8264070BDB6
:1023F0000CED00E000E400E080E100E00249014370
:10240000024A1160704700000000FA050CED00E080
:1024100070B500240CE0002506E00020074901EB20
:10242000C5010855681CC5B2802DF6DB601CC4B21E
:10243000082CF0DB00F00AF970BD00007C000020E1
:1024400010B504461CB90021A62000F032FB012C77
:1024500003D10021A72000F02CFB10BD10B50446CD
:102460003CB90021C82000F024FB0021A12000F08D
:1024700020FB012C07D10021C02000F01AFB002115
:10248000A02000F016FB10BDF0B514460B46CF1788
:1024900001EB5777C7F3C702CF1701EB5777FF1050
:1024A000A1EBC707FEB20123B340DDB24CB1134B21
:1024B00003EBC0039B5C2B43104F07EBC007BB54DF
:1024C0001AE00E4B03EBC0039B5CDB430B4F07EBA7
:1024D000C007BB54094B03EBC0039B5C2B43074F66
:1024E00007EBC007BB54054B03EBC0039B5CDB430E
:1024F000024F07EBC007BB54F0BD00007C0000207A
:1025000008B50121042000F001FB0121102000F09A
:10251000FDFA0220ADF8000014208DF8030003201E
:102520008DF8020069464148FFF7EBFA02213F4867
:10253000FFF7BCFB0820ADF8000014208DF8030065
:1025400003208DF8020069463948FFF7DAFA0821BE
:102550003748FFF7ABFB0021AE2000F0AAFA0021BC
:10256000084600F0A6FA0021102000F0A2FA00218F
:10257000402000F09EFA0021812000F09AFA00210C
:10258000CF2000F096FA0021A12000F092FA00215D
:10259000C82000F08EFA0021A62000F08AFA00215F
:1025A000A82000F086FA00213F2000F082FA0021E6
:1025B000D32000F07EFA0021084600F07AFA0021CC
:1025C000D52000F076FA0021802000F072FA002178
:1025D000D92000F06EFA0021F12000F06AFA002103
:1025E000DA2000F066FA0021122000F062FA0021E1
:1025F000DB2000F05EFA0021302000F05AFA0021C2
:10260000202000F056FA0021022000F052FA0021AA
:102610008D2000F04EFA0021142000F04AFAFFF756
:10262000F7FE0021AF2000F044FA08BD0008014089
:102630000010014010B50246012000E050430B1E7F
:10264000A1F10104E1B2F9D110BD000070B5002480
:102650002BE004F1B001C8B2002100F02AFA0021F9
:10266000084600F026FA0021102000F022FAFFF7B9
:1026700021FB782000F0C6FAFFF74CFB402000F069
:10268000C1FAFFF747FB002509E0094901EBC50145
:10269000085D00F0B7FAFFF73DFB681CC5B2802D5E
:1026A000F3DBFFF723FB601CC4B2082CD1DB70BD49
:1026B0007C0000202DE9FE4F0746884692461C46C6
:1026C0000197CDF80080082C02D14FF006091FE0D9
:1026D0002046E31704EB5373DB1021464FEAE47CFA
:1026E00004EB5C7C4FEAEC0CA4EBCC0CBCF1000FCF
:1026F00002D04FF0010C01E04FF0000C6344224681
:1027000004EBD27C4FEA6C0C03FB0CF303F0FF09E3
:10271000AAF12000C6B200255EE0082C07D106EB26
:1027200046002F4901EB400010F805B01DE00C2CCD
:1027300007D106EB46002B4901EB800010F805B0ED
:1027400013E0102C05D1284800EB061010F805B056
:102750000BE0182C07D106EBC600244901EB8000E2
:1027600010F805B001E0BDE8FE8F002002901CE0EB
:102770000BF0010028B1414638460C9AFFF784FE61
:1027800009E00C9808B9012000E00020024641460B
:102790003846FFF779FE4FEA6B0B08F1010000F0B5
:1027A000FF080298401CC0B2029002980828DFDBA4
:1027B000781CC7B2082C0BD004EBD4714A100199D5
:1027C000791A8A4204D1019F00980830C0B2009063
:1027D000DDF80080681CC5B24D459EDB00BFC2E736
:1027E00080860008A88800081C8D00080C9300084B
:1027F0002DE9FF4F87B005461746DDE914643846DA
:10280000FFF7B7FD0690069804F084FE642190FB64
:10281000F1F9069804F07EFE0A2190FBF1F090FB9E
:10282000F1F201FB120808EB8801480004F0AEFE4B
:102830006421029009FB01F004F0A8FE01900699C2
:1028400005F001F88346029905F008F8824604F085
:1028500061FE0590069804F05DFE019004F096FE7E
:102860008346069904F0EFFF5A49029004F0EEFE09
:10287000824604F04FFE0490069804F04BFE01904F
:1028800004F084FE8346069904F0DDFF8246524937
:1028900004F0DCFE029004F03DFE0A2190FBF1F210
:1028A00001FB120003900021384604F09BFF44D83E
:1028B00033462B22009428460899FFF7FBFE05F1CA
:1028C0000801C8B201234A46CDE90064089900F026
:1028D00085F805F11001C8B201234246CDE9006434
:1028E000089900F07BF805F11801C8B20123CDE981
:1028F0000064059A089900F071F805F12001C8B24A
:1029000033462E2200940899FFF7D4FE05F12801E2
:10291000C8B20123CDE90064049A089900F05EF87A
:1029200005F13001C8B20123CDE90064039A08998A
:1029300000F054F8FFF78AFE48E00021384604F022
:1029400051FE43D233462D22009428460899FFF7C2
:10295000B1FE05F10801C8B201234A46CDE9006481
:10296000089900F03BF805F11001C8B20123424676
:10297000CDE90064089900F031F805F11801C8B2FA
:102980000123CDE90064059A089900F027F805F1C4
:102990002001C8B233462E2200940899FFF78AFE20
:1029A00005F12801C8B20123CDE90064049A089911
:1029B00000F014F805F13001C8B20123CDE900643C
:1029C000039A089900F00AF8FFF740FE0BB0BDE843
:1029D000F08F0000000020410000C8422DE9FF4FA9
:1029E00082B0064691461F46DDE90F4A4FF0000BC4
:1029F000082C01D14FF0020B002530E0781B401E5F
:102A0000C1B20A20FFF716FEB9FBF0F00A21B0FBB5
:102A1000F1F201FB1208B8F1000F0ED104EBD471F2
:102A20000BEB610101FB0561C8B223463022CDE901
:102A300000A40399FFF73EFE0FE004EBD4710BEB0B
:102A4000610101FB0561C8B208F13001CAB2234639
:102A5000CDE900A40399FFF72DFE681CC5B2BD4265
:102A6000CCDB06B0BDE8F08F2DE9F84106460F46F5
:102A700014461D46DDF81C8013E0CDF80080227856
:102A80002B4639463046FFF715FE082D02D1B01D02
:102A9000C6B205E0284605EBD07106EB6101CEB267
:102AA000641C2078202802DB20787E28E5DDBDE844
:102AB000F88170B505460C46FFF7FCF8782000F069
:102AC000A1F8FFF727F91CB1402000F09BF802E0C5
:102AD000002000F097F8FFF71DF9284600F092F863
:102AE000FFF718F9FFF702F970BD704729B1064AE0
:102AF000D2690243044BDA6104E0034AD26982439B
:102B0000014BDA61704700000010024029B1064A0B
:102B100092690243044B9A6104E0034A926982433A
:102B2000014B9A61704700000010024030B500214F
:102B30000022002400232D4D6D6805F00C0121B109
:102B4000042905D0082923D105E0294D056022E09C
:102B5000274D05601FE0254D6D6805F47012234D6B
:102B60006D6805F48034022505EB92421CB9214DB5
:102B7000554305600BE01D4D6D6805F400351DB132
:102B80001C4D5543056002E0194D5543056002E0B8
:102B9000174D056000BF00BF144D6D6805F0F001D2
:102BA0000909154D6B5C0568DD4045600F4D6D688A
:102BB00005F4E061090A104D6B5C4568DD408560F5
:102BC0000A4D6D6805F46051C90A0B4D6B5C456890
:102BD000DD40C560054D6D6805F44041890B074D2A
:102BE0006B5CC568B5FBF3F5056130BD00100240B4
:102BF00000127A0000093D00490000205900002021
:102C00007047000070B5044600251BE004F080000A
:102C100020B108210D48FFF749F803E008210B48CF
:102C2000FFF742F8FFF78EF802210948FFF73EF858
:102C3000FFF788F802210648FFF736F86006040E11
:102C4000681CC5B2082DE1DB70BD0000001001401A
:102C50000008014010B500F001F810BD0CB50020CF
:102C6000019000903348006840F48030314908609A
:102C700000BF3048006800F4003000900198401C0C
:102C80000190009818B90198B0F5A06FF1D12948CA
:102C9000006800F4003010B10120009001E0002035
:102CA00000900098012843D12348006840F01000AC
:102CB000214908600846006820F0030008600846C3
:102CC000006840F0020008601A48406819494860EE
:102CD0000846406848600846406840F480604860A4
:102CE0000846406820F47C1048600846406840F47C
:102CF000E81048600846006840F08070086000BF37
:102D00000C48006800F000700028F9D009484068BD
:102D100020F00300074948600846406840F0020080
:102D2000486000BF0348406800F00C000828F9D153
:102D30000CBD00000010024000200240042808D111
:102D40004FF0E021096941F004014FF0E0221161E8
:102D500007E04FF0E021096921F004014FF0E02283
:102D6000116170477047000010B51348006840F0CB
:102D700001001149086008464068104908400E49A2
:102D80004860084600680E4908400B49086008463C
:102D9000006820F4802008600846406820F4FE00A7
:102DA00048604FF41F008860FFF754FF4FF0006049
:102DB0000449086010BD0000001002400000FFF848
:102DC000FFFFF6FE08ED00E030B589B005460C4681
:102DD0000121C802FFF79AFE01210420FFF796FEA9
:102DE0004FF48070ADF8200018208DF823000320E8
:102DF0008DF8220008A91848FEF783FEADF8185098
:102E0000ADF814400020ADF81A00ADF8160005A981
:102E1000124800F07BF96020ADF804000120ADF805
:102E200006000020ADF80A00ADF80C0001A90B481F
:102E300000F0B2F80121094800F08DF80821074898
:102E400000F0F6F80121054800F06AF80121034876
:102E500000F075F809B030BD00080140002C0140B9
:102E600010B50121084800F085F858B10121064845
:102E700000F062F80548006808B9012000E0002071
:102E80000249086010BD0000000400409401214286
:102E900030B589B005460C4601210220FFF726FE19
:102EA00001210920FFF732FE01211A48FEF7B4FE86
:102EB0002020ADF8200018208DF8230003208DF885
:102EC000220008A91448FEF71CFEADF81850ADF812
:102ED00014400020ADF81A00ADF8160005A90F48FF
:102EE00000F014F96020ADF804000120ADF80600F0
:102EF0000020ADF80C0001A9084800F0A3F8082153
:102F0000064800F0F1F80121044800F018F809B073
:102F100030BD000000081A00000C01400004004011
:102F200021B1028842F08002028004E002884FF65C
:102F30007F731A4002807047CA430282704721B1F2
:102F4000028842F00102028004E002884FF6FE731C
:102F50001A400280704731B1B0F8442042F4004278
:102F6000A0F8442005E0B0F84420C2F30E02A0F817
:102F70004420704730B50246002000230024158A03
:102F800005EA0103958905EA010413B10CB101209A
:102F900000E0002030BD000070B5002400220023B6
:102FA000058C4FF6FE7635400584028C8388048BB1
:102FB0004FF68F752C40B51E2C400D882C43751E86
:102FC0002A400D892A434D882A43144DA8420BD02C
:102FD000134DA84208D0134DA84205D0124DA84267
:102FE00002D0124DA84213D14FF6F7752A404D89F1
:102FF0002A434FF6FB752A408D882A434FF6FF651A
:103000002B404FF6FF552B408D892B43CD892B4309
:1030100083800483CD888586028470BD002C0140A6
:10302000003401400040014000440140004801409C
:103030000A460021018B4FF6F773194011430183B3
:103040007047000070B5002400220023058C4FF665
:10305000EF7635400584028C8388048B48F6FF7533
:103060002C404FF6FF452C400D884FF6FF7606EAC0
:1030700005252C434FF6DF752A400D8906EA051514
:103080002A434D8806EA05152A43154DA84202D069
:10309000144DA8421DD14FF67F752A404D894FF639
:1030A000FF7606EA05152A434FF6BF752A408D883C
:1030B00006EA05152A434FF6FF352B404FF2FF7500
:1030C0002B408D8906EA85052B43CD8906EA8505C7
:1030D0002B4383800483CD880587028470BD000064
:1030E000002C0140003401400A460021018B4FF2C0
:1030F000FF7319404FF6FF7303EA0223194301835C
:10310000704781867047018770470000002202885F
:103110001D4B98420ED01D4B98420BD0B0F1804F02
:1031200008D01B4B984205D01A4B984202D01A4B3C
:10313000984204D14FF68F731A404B881A43174BAD
:10314000984207D0164B984204D04FF6FF431A40DE
:10315000CB881A4302808B8883850B8803850A4BB2
:1031600098420BD0094B984208D00E4B984205D09C
:103170000D4B984202D00D4B984201D10B7A038639
:103180000123838270470000002C0140003401407D
:103190000004004000080040000C00400010004007
:1031A000001400400040014000440140004801403C
:1031B00010B540F225511D4800F057F810B31B48D8
:1031C00000F00EF9C4B21A48008800F40040C8B9F3
:1031D0001748008800F4804060B10A2C03D000201A
:1031E0001349088020E01248008840F4004010494C
:1031F000088019E00D2C06D10D48008840F480406D
:103200000B49088010E00A480088C0F30D00094906
:103210000C5407480088401C05490880084600886F
:10322000C72801DD0020088010BD000000380140E3
:1032300068000020FC04002021B1828942F4005281
:10324000828104E082894DF6FF731A4082817047C3
:1032500002460020B1F5007F00D100BF13880B406B
:103260000BB1012000E00020704770B50246002439
:1032700000230025002040F66A16B14200D100BFAD
:10328000C1F3421501F01F03012606FA03F3012DD5
:1032900002D19689334006E0022D02D1168A3340CE
:1032A00001E0968A33400C12012606FA04F41688CF
:1032B000344013B10CB1012000E0002070BDF0B526
:1032C0000346002400260025002040F66A17B94274
:1032D00000D100BF1846C1F3421401F01F060127B8
:1032E00007FA06F5012C01D10C3004E0022C01D1C3
:1032F000103000E014301AB107682F43076002E075
:103300000768AF430760F0BD2DE9F04786B005467A
:103310000E460024A24600BFA1460027B08900B196
:1033200000BF2F462C8A4CF6FF700440F0880443FF
:103330002C82AC894EF6F3100440B08831890843E2
:10334000718908430443AC81AC8A4FF6FF400440C6
:10335000B0890443AC8201A8FFF7E8FB1F4887420D
:1033600002D1DDF810A001E0DDF80CA0A88900F47E
:10337000004040B10AEBCA0000EB0A103168490076
:10338000B0FBF1F807E00AEBCA0000EB0A10316865
:103390008900B0FBF1F86420B8FBF0F004012009CB
:1033A000642101FB1089A88900F4004040B132205B
:1033B00000EBC900B0FBF1F000F00700044308E0A7
:1033C000322000EB09106421B0FBF1F000F00F0097
:1033D00004432C8106B0BDE8F087000000380140AE
:1033E00001468888C0F308007047C1F30802828054
:1033F000704700BFFEE7000010B586B0044601210B
:103400000420FFF783FB01214804FFF76FFB18201E
:103410008DF817000420ADF8140003208DF8160075
:1034200005A91E48FEF76DFB04208DF81700082043
:10343000ADF8140003208DF8160005A91748FEF713
:1034400060FB01940020ADF810000C20ADF80E00D8
:103450000020ADF80C00ADF80A00ADF8080001A995
:103460000F48FFF751FF01210D48FFF7E5FE01224C
:1034700040F225510A48FFF722FF26208DF8000070
:1034800001208DF8030000208DF801008DF8020066
:103490006846FEF77BFF06B010BD00000008014043
:1034A000004400400FB430B5CBB0054601AC50A885
:1034B00000904FF4947101A8009B4F9AFCF722FFF3
:1034C000002000900BE014F8011B2846FFF78DFF49
:1034D00000BF40212846FFF7BBFE0028F9D0207826
:1034E0000028F0D14BB030BC5DF814FB490050EA25
:1034F000C12018BF04204A0D18BF40F0010040F25F
:10350000FF72B2EB515F08BF40F00200012808BF14
:10351000052070472DE9F0414F1E00EBC70104461E
:10352000D1E9000115461E4637F006020DD02A46A5
:10353000334603F085FB7F1E04EBC703D3E900236A
:1035400003F076F937F00602F1D1022F25D0042FCF
:1035500013D0062F18BFBDE8F0812A46334603F08A
:103560006FFBD4E90A2303F063F92A46334603F0DC
:1035700067FBD4E9082303F05BF92A46334603F0DE
:103580005FFBD4E9062303F053F92A46334603F0E0
:1035900057FBD4E9042303F04BF92A46334603F0E2
:1035A0004FFBD4E9022303F043F92A46334603F0E4
:1035B00047FBD4E90023BDE8F04103F039B901220B
:1035C00004F0F5B903F034B9002213461046114651
:1035D00003F0DEB9024A0020110704F0E8B9000048
:1035E00001FDFFFF30380A2801D20120704700207A
:1035F000704700BF704700002DE9FE4F06460F469A
:103600000025684601F0DCF9002442E056F8240069
:1036100057F82410A0EB010ABAF1000F01DB514664
:1036200001E0CAF10001084603F0B0FF83464FF005
:103630008F4103F079FE80465DF82400002103F0FD
:1036400035FF16D05DF82410404603F06DFE82462B
:103650004FF07E5104F002F9814629F0004A0F48EC
:10366000416A504604F0BEF812D20120A040054342
:103670000EE00A48C169404603F0B4FF05D307488D
:10368000016A404604F0AEF802D20120A040054392
:10369000641C032CBADB2846BDE8FE8F5886000860
:1036A0002DE9F04D8D4F21F0004A86B005460C46BD
:1036B000BA452ADBAAEB070028430AD0884882458E
:1036C00001DC1AD1CDB106B02846BDE8F04DFFF7B8
:1036D00076BF844A844B284603F0B2FA07460E466A
:1036E000824A834B2846214603F0AAFA06B03A469E
:1036F0003346BDE8F04D03F09BB80120FDF74EF8CE
:1037000006B0BDE8F04DFFF75FBF7A48824542DA68
:10371000BAF1795F0BDA2846FFF7E8FE042808BF04
:10372000FFF758FF284606B02146BDE8F08D2A462F
:103730000B46104603F084FA834602466E480E4656
:103740000B4606217844FFF7E5FE5A46334603F060
:1037500077FA804669488A465A46334604217844B7
:10376000FFF7D8FE5A46334603F06AFA00223B467A
:1037700003F05EF802460B464046514603F008F956
:103780002A46234603F05CFA06B02A462346BDE8E3
:10379000F04D03F04DB8284624F0004100223D468C
:1037A0003B4603F04BFB4FF0FF3204F000F90646B6
:1037B000024653480F460B4606217844FFF7AAFEFF
:1037C00032463B4603F03CFACDE900014D48324613
:1037D0003B4604217844FFF79DFE32463B4603F00A
:1037E0002FFA00222B4603F023F88346029130463D
:1037F000394602F049FF804643480D46504517DCE4
:10380000DDE900015A46029B03F0C2F842462B460E
:1038100003F016FA42462B4603F00AF8012204F0A0
:10382000C6F8304A304B03F0FBFB304A304B4CE0DB
:103830004FF0000A52460B46404602F0F9FFCDE930
:10384000031052462B461046194603F0F9F932464A
:103850003B4603F0F3FADDE9033203F099F806463C
:103860000F46DDE900015A46029B03F091F88346BA
:10387000009101223046394604F099F8194A1A4B52
:1038800003F0DCFA06460F4601224046294604F0C2
:103890008EF85A46009B03F0D3F932463B4603F0BC
:1038A000BFFB06460F4601225046294604F07FF82A
:1038B0000E4DDFF858802A46434603F0BFFA3246E1
:1038C0003B4603F0BBFA2A46434603F0B7FA002C06
:1038D000D8BF81F0004106B0BDE8F08D0000F03F98
:1038E0000000F07F075C143326A6913C182D445449
:1038F000FB21F93F0000E03F886D00009E6D000055
:10390000126D0000286D00003333EF3FFB21E93FCB
:103910002DE9F84F04460D4621F00040009173490F
:10392000814211DC7249884201DC06D12CB120466B
:103930002946BDE8F84FFFF742BE6E48002DCCBFC8
:103940006D496E49BDE8F88F6D49814211DD6D49C1
:103950008142D8BF4FF0FF366DDD20462946FFF784
:10396000C5FD042808BFFFF735FE20462946BDE8FF
:10397000F88F6549654F25F00045814233DD644984
:10398000814219DD002632464FF080432046294609
:1039900002F04EFF80468A4601222046294604F066
:1039A00006F800223B4603F03BFB4246534602F03A
:1039B000EFFF04460D463EE001260022BA463B4694
:1039C0002046294602F034FF80460F460022534627
:1039D0002046294603F024FB42463B4602F0D8FF2E
:1039E00004460D4627E04B4981421BDDDFF828A144
:1039F0000226002253462046294603F021F90022E0
:103A00003B4602F015FF80460F46002253462046F3
:103A1000294603F005FB42463B4602F0B9FF044647
:103A20000D4608E0032622462B4600203B4902F0C3
:103A3000AFFF04460D4622462B461046194603F0BA
:103A4000FFF88B46824602460B4603F0F9F807461C
:103A50000246334888460B4606217844FFF75AFD54
:103A600052465B4603F0ECF882462E488B463A46B7
:103A7000434605217844FFF74DFD3A46434603F09F
:103A8000DFF802460B46002E504659460CDA02F08B
:103A9000CFFE22462B4603F0D3F801B022462B4638
:103AA000BDE8F04F03F0CAB902F0C2FE22462B4631
:103AB00003F0C6F81C4A7A4402EBC603D3E900239C
:103AC00003F0AEFA22462B4603F0AAFA174A7A44CC
:103AD00002EBC603D3E9002303F0B0F9009A002AF1
:103AE000B8BF81F00041BDE8F88F0000000010442D
:103AF0000000F07F182D4454FB21F93FFB21F9BF52
:103B00000000DC3F0000203E0000F33F0000F03FDB
:103B10000000E63F008003400000F83F0000F0BFD7
:103B2000326B0000F06A00008E6A0000566A0000E6
:103B30002DE9F04D9446CCF1000423F000464CEA08
:103B40000404524F46EAD4749A46884621F0004253
:103B5000BC4206D8454240EA050442EAD474BC425D
:103B600004D9BDE8F04D6246FFF72CBDAAF14055DF
:103B7000A5F17F6555EA0C040BD0022404EAAA746F
:103B8000434DDFF810E144EAD87452EA000B04D048
:103B90000CE0BDE8F04DFFF7BBBE002C14BF012CBC
:103BA000BDE8F08D022C30D0032C32D056EA0C0B3D
:103BB0000AD0BE4220D1BA4209D126F0804622F076
:103BC00080423346114617E000291ADB25E0DFF872
:103BD000C8B0FB44002C04BFDBE90001BDE8F08D58
:103BE000012C02BFDBE9000181F00041BDE8F08D4E
:103BF000022C0AD0032C0CD0BA4212D1B8F1000F1B
:103C00000BDA23482549BDE8F08D28462449BDE854
:103C1000F08D28467146BDE8F08D1D482149BDE86C
:103C2000F08D921B12153C2AC4BF19481D490EDCA9
:103C3000BAF1000FBEBF12F13C0F0020014606DBB7
:103C4000624602F0A5FE21F00041FFF761FE002C64
:103C500008BFBDE8F08D012C04BF81F00041BDE834
:103C6000F08D114A114B022C07D003F0D9F92A46E6
:103C7000BDE8F04D0A4B03F0D3B903F0D1F92A4661
:103C8000BDE8F04D064B03F0D9B800000000F07F0E
:103C9000182D4454FB2109C0EA690000FB21F9BF3B
:103CA000FB210940FB21F93F075C143326A6A13C08
:103CB0002DE9F0410446E07800F0C006E07800F01D
:103CC0003F05607800F0010098B1EF102846E91731
:103CD00005EB5171C910A5EBC101491C01F0FF08AA
:103CE0000B48006820B10A484146026838469047B0
:103CF00000BF607800F0080030B10548406818B196
:103D0000B011034A516888470020BDE8F0810000E7
:103D10006C00002010B56FF00400FFF70FF80A48A0
:103D200000680A49B0FBF1F00949087008460078BC
:103D300000EB4001C1EBC0104FF6FF7101EAC0007B
:103D40000449088010BD00000000002000127A0025
:103D50005E000020600000200146114A12884A439C
:103D60004FF0E0235A6100229A611A46126942F02C
:103D700001021A6100BF4FF0E022106900F0010259
:103D80001AB100F48032002AF5D04FF0E022126917
:103D900022F001024FF0E0231A6100229A6170477D
:103DA000600000200146114A12784A434FF0E02398
:103DB0005A6100229A611A46126942F001021A61A0
:103DC00000BF4FF0E022106900F001021AB100F4C8
:103DD0008032002AF5D04FF0E022126922F0010271
:103DE0004FF0E0231A6100229A6170475E000020C4
:103DF00038B5044664B120208DF8000028208DF8E5
:103E0000010030208DF8020038208DF8030004E016
:103E1000A32204216846FCF739FC6A46042140F6D7
:103E20009E2002F05FFB01F049FF38BD3EB504461D
:103E300002208DF80000CA208DF80100E3208DF8E3
:103E4000020009208DF803006A460421682002F070
:103E500049FBA3208DF8000004F0400048B1C020C9
:103E60008DF80100C8208DF80200C2208DF80300F3
:103E700006E0A3208DF801008DF802008DF8030004
:103E800004F4C07048B1C4208DF80400CC208DF833
:103E90000500C6208DF8060006E0A3208DF804007A
:103EA0008DF805008DF80600A3208DF807008DF829
:103EB00008008DF809006A460A2140F6A72002F0A2
:103EC00011FB04F0030018B120208DF8000002E07F
:103ED000D8208DF800006A46012140F6B62002F095
:103EE00001FB04F0200018B1012000F0ADF802E061
:103EF000002000F0A9F804F4C07008B304F4807046
:103F000060B1B2208DF800008B208DF80100B62042
:103F10008DF802009B208DF803000BE0B0208DF897
:103F2000000080208DF80100B4208DF80200902060
:103F30008DF803006A46042140F6A22002F0D2FA6E
:103F400004F0010020B3F8208DF800006A4601213A
:103F50004FF40B6002F0C6FAFA21072000F02CFCA7
:103F6000072000F0F3FB012000F013FC642000F0B8
:103F7000F3FC4FF4FA7000F002FDC821304800F065
:103F8000A3FB282000F0BCFB0A2000F0CCFB08E0DB
:103F9000D8208DF800006A4601214FF40B6002F032
:103FA000A1FA04F0020018B1D9208DF8000002E057
:103FB000D8208DF800006A46012140F23D7002F0E1
:103FC00091FA04F0040018B1012000F069F802E051
:103FD000002000F065F804F0100018B10120FFF790
:103FE00007FF02E00020FFF703FF44F00800154937
:103FF000488101F063FE00201249887304F04000FC
:1040000018B10846807B801D887304F4C07020B10D
:104010000C48807B801D0B49887304F0140020B18C
:104020000848807B10300749887304F0030020B1F2
:104030000448807B001D0349887300203EBD0000BA
:1040400009E3CA026C0000203EB504466CB10EA123
:10405000D1E900208968CDE9002002916A46092152
:104060004FF4976002F03EFA3EBD0AA2D2E900107A
:104070009268CDE9010200916A4609214FF49760E8
:1040800002F030FAF0E70000B8AAB38DB4980D350D
:104090005D000000B8AAAAAAB088C3C5C700000086
:1040A00038B5044664B1C0208DF80000C2208DF8F8
:1040B0000100C4208DF80200C6208DF8030004E042
:1040C0008B2204216846FCF7E1FA6A46042140F697
:1040D000982002F007FA01F0F1FD38BD10B5C823B1
:1040E0004FF48062024940F6F63001F07BFC10BDCF
:1040F0003A7A00082DE9F04F8DB0074688461546FC
:104100009946DDE9166B0024002030806B49887BDE
:104110005A4605A901F032FD18B1601E0DB0BDE888
:10412000F08F6648807A00F01400002867D09DF870
:10413000140000069DF8151040EA01409DF8161085
:1041400040EA01209DF81710084328609DF81800E8
:1041500000069DF8191040EA01409DF81A1040EA47
:1041600001209DF81B10084368609DF81C000006A4
:104170009DF81D1040EA01409DF81E1040EA012004
:104180009DF81F100843A8609DF8200000069DF8C8
:10419000211040EA01409DF8221040EA01209DF8DC
:1041A00023100843E86004F11000C4B2286800142A
:1041B0000190686800140290A86800140390E868F1
:1041C0000014049001984043029901FB01000399F7
:1041D00001FB0100049901FB010ABAF1706F02DBD7
:1041E000BAF1885F05DD01F069FD00203080401ED6
:1041F00094E7B6F9000040F48070308000BF2F488B
:10420000807A00F0400020B305A9601C085C095DBD
:1042100040EA012000B2A8F8000005A9E01C095CF2
:1042200005AAA01C105C41EA002000B2A8F8020018
:1042300005A9601D095C201D105C41EA002000B248
:10424000A8F80400A01DC4B2B6F9000040F00800B0
:1042500030801A48408900F4C07008B305A9601C7A
:10426000085C095D40EA012000B2388005A9E01C25
:10427000095C05AAA01C105C41EA002000B278800D
:1042800005A9601D095C201D105C41EA002000B2F8
:10429000B880A01DC4B2B6F9000040F070003080B4
:1042A0000648807A00F0030018B105A90819FFF745
:1042B000FFFC484601F028F800202FE76C000020A2
:1042C00070B588B0064601A801F0E0F9BDF8040019
:1042D0000021C90341EA5045C4034448007A00F074
:1042E000030056F8200005904048007A00F00400D2
:1042F00010B10598404205903C48007AC0F3C100D7
:1043000056F8200006903948007A00F0200010B1DD
:104310000698404206903548007AC0F3811056F85E
:10432000200007903148008900F4807010B1079890
:10433000404207900598C117A0FB042301FB0431FC
:1043400000FB0510810041EA927005900698C117A4
:10435000A0FB042301FB043100FB0510810041EAAE
:10436000927006900798C117A0FB042301FB04314B
:1043700000FB0510810041EA927007900598000E3D
:104380008DF808000598000C8DF809000598000AC2
:104390008DF80A000598C0B28DF80B000698000E43
:1043A0008DF80C000698000C8DF80D000698000A98
:1043B0008DF80E000698C0B28DF80F000798000E19
:1043C0008DF810000798000C8DF811000798000A6E
:1043D0008DF812000798C0B28DF8130002AA0C21C4
:1043E0004FF4257002F07EF808B070BD6C0000201C
:1043F00030B585B0044616A207CA02AB07C3C82C65
:1044000003DD4FF0FF3005B030BDC82090FBF4F065
:10441000401E85B2280A8DF80000E8B28DF8010030
:104420006A46022140F2162002F05CF810B14FF00B
:10443000FF30E8E702AA0C2140F6C12002F052F852
:1044400010B14FF0FF30DEE7044884810020DAE746
:10445000FEF2ABC4AAF1DFDFBBAFDFDF6C000020F0
:104460001FB504464848007A00F0030054F82000C5
:1044700001904548007A00F0040010B101984042D4
:1044800001904148007AC0F3C10054F82000029026
:104490003D48007A00F0200010B10298404202909E
:1044A0003948007AC0F3811054F820000390364850
:1044B000008900F4807010B10398404203903349A2
:1044C000019880FB0101800F40EA810001902F4993
:1044D000029880FB0110820042EA917002902B4901
:1044E000039880FB0110820042EA917003900198CA
:1044F000000E8DF800000198000C8DF80100019865
:10450000000A8DF802000198C0B28DF803006A46D7
:1045100004214FF4747001F0E5FF18B14FF0FF3043
:1045200004B010BD0298000E8DF800000298000C37
:104530008DF801000298000A8DF802000298C0B2BE
:104540008DF803006A4604214FF4757001F0CAFF2C
:1045500010B14FF0FF30E3E70398000E8DF8000034
:104560000398000C8DF801000398000A8DF80200F2
:104570000398C0B28DF803006A4604214FF47670A8
:1045800001F0B0FFCCE700006C00002009E3CA0294
:1045900010B586B0044647A00068039046A00068A6
:1045A000029046A00068019045A00068009004F0C9
:1045B000030003A9085C8DF8140003A8C4F3C1012B
:1045C000405C8DF8150003A8C4F38111405C8DF8A0
:1045D000160004F0030002A9085C8DF8100002A880
:1045E000C4F3C101405C8DF8110002A8C4F381112D
:1045F000405C8DF8120005AA032140F2264001F02C
:1046000071FF18B14FF0FF3006B010BD04AA0321AE
:1046100040F22A4001F066FF10B14FF0FF30F3E79F
:10462000019805900098049004F0040058B19DF89A
:10463000140040F001008DF814009DF8100040F0C7
:1046400001008DF8100004F0200058B19DF815000D
:1046500040F001008DF815009DF8110040F00100B8
:104660008DF8110004F4807058B19DF8160040F0E8
:1046700001008DF816009DF8120040F001008DF841
:10468000120005AA03214FF4886001F02BFF10B13E
:104690004FF0FF30B8E704AA032140F2314001F0A7
:1046A00021FF10B14FF0FF30AEE706480481002033
:1046B000AAE700004CCD6C000CC92C0036567600E1
:1046C000264666006C000020F8B505460E464FF4FD
:1046D0007A7095FBF0F000FB06F4200E8DF80000D8
:1046E000200C8DF80100200A8DF80200E0B28DF850
:1046F00003006A4604214FF4AE7001F0F3FEF8BDEA
:1047000038B50446052094FBF0F084B220128DF8F1
:104710000000E0B28DF801006A4602214FF4AD704E
:1047200001F0E0FE38BD38B50446052094FBF0F0FA
:1047300084B220128DF80000E0B28DF801006A46C4
:1047400002214FF4AC7001F0CDFE38BD38B50446FF
:104750000020009004F0010020B19DF8000040F01E
:104760003000009004F0020020B19DF8000040F0FD
:104770000C00009004F0040020B19DF8000040F00F
:10478000030000906A4601214FF4A47001F0AAFED4
:1047900038BD38B50446012C01DA012402E0042CAE
:1047A00000DD0424601EC0B200906A46012140F280
:1047B0004F1001F097FE38BD2DE9FC4706460F4625
:1047C00006F0070010B1B7F5C86F03DD4FF0FF30FA
:1047D000BDE8FC87384602F0F1FE8146594902F0F7
:1047E000A3FD8046684600F02BFF9DF800000228DC
:1047F00006D0042816D0082826D0102848D135E045
:104800004FF08D41404602F021FF814602F09EFEAE
:1048100084B24D49404602F019FF814602F096FEEF
:1048200085B238E04FF08C41404602F00FFF8146E0
:1048300002F08CFE84B24549404602F007FF8146F3
:1048400002F084FE85B226E04FF08B41404602F034
:10485000FDFE814602F07AFE84B23D49404602F0F8
:10486000F5FE814602F072FE85B214E04FF08A41F7
:10487000404602F0EBFE814602F068FE84B2354904
:10488000404602F0E3FE814602F060FE85B202E09F
:104890004FF0FF309CE700BF20128DF80400E0B21B
:1048A0008DF8050028128DF80600E8B28DF8070093
:1048B00006F00100A0B101AA02214FF4EA7001F054
:1048C00011FE10B14FF0FF3082E70DF10602022118
:1048D0004FF4927001F006FE10B14FF0FF3077E711
:1048E00006F00200A0B101AA02214FF4EC7001F021
:1048F000F9FD10B14FF0FF306AE70DF10602022119
:104900004FF4947001F0EEFD10B14FF0FF305FE70F
:1049100006F00400A0B101AA02214FF4EE7001F0EC
:10492000E1FD10B14FF0FF3052E70DF10602022118
:104930004FF4967001F0D6FD10B14FF0FF3047E70D
:10494000002045E700004843000040460000C04505
:10495000000040450000C04438B50446052094FBE3
:10496000F0F085B228128DF80000E8B28DF8010051
:104970006A4602214FF4EF7001F0B4FD38BD38B53E
:104980000446052094FBF0F085B228128DF8000053
:10499000E8B28DF801006A4602214FF4ED7001F093
:1049A000A1FD38BD00BF054A128802F04002002A6E
:1049B000F9D0C2B2014B1B1D1A807047003801406C
:1049C0007CB5054628494968087801AB04220D21C9
:1049D000FDF7F7FB08B107207CBD9DF80700C0F389
:1049E00001109DF8041001F0E00140EAE1008DF8AB
:1049F00000009DF80700C0F381009DF8051001F04C
:104A0000E00140EAE1008DF801009DF8070000F0A8
:104A100003009DF8061001F0E00140EAE1008DF886
:104A2000020000241CE01DF8040018B9002045F81D
:104A3000240013E00D4845F8240006E055F8240052
:104A40000B4902F003FE45F824001DF80400401E47
:104A5000C0B20DF804000028F0D100BF601CC4B241
:104A6000032CE0DB0020B7E7140000207B14AE3EEF
:104A70001D5A843F2DE9F04F87B005460C469146FC
:104A800001208DF8100000208DF81100FE4A1268F8
:104A9000917CFD4A5268107804AB0222FDF737FC86
:104AA00020B14FF0FF3007B0BDE8F08FC820FFF70E
:104AB00053F900208DF81000F34A1268D17BF24AB6
:104AC0005268107804AB0122FDF721FC10B14FF0C1
:104AD000FF30E8E7EC4A12685179EB4A52681078E7
:104AE00004AB0122FDF713FC10B14FF0FF30DAE701
:104AF000E54A1268917CE44A5268107804AB0122BE
:104B0000FDF705FC10B14FF0FF30CCE7DE4A12682C
:104B1000D17DDD4A5268107804AB0122FDF7F7FB26
:104B200010B14FF0FF30BEE7D74A12681179D64A6C
:104B30005268107804AB0122FDF7E9FB10B14FF089
:104B4000FF30B0E70C208DF81000CF4A12681179C1
:104B5000CD4A5268107804AB0122FDF7D8FB10B1A2
:104B60004FF0FF309FE70F20FFF7F6F8C648806A46
:104B7000407A8DF81000C44A12689178C24A52688F
:104B8000107804AB0122FDF7C2FB10B14FF0FF30EB
:104B900089E7BD48806A007A8DF81000BA4A126829
:104BA0005178B94A5268107804AB0122FDF7AFFB87
:104BB00010B14FF0FF3076E7B9F1000F07D0B248DF
:104BC000806A807A40F0E0008DF8100004E0AE4882
:104BD000806A807A8DF81000AB4A12689179AA4AEF
:104BE0005268107804AB0122FDF791FB10B14FF031
:104BF000FF3058E7B9F1000F07D0A348806AC07AA8
:104C000040F0E0008DF8100003E0A048C07A8DF875
:104C100010009D4A1268D1799B4A5268107804AB03
:104C20000122FDF774FB10B14FF0FF303BE7B9F103
:104C3000000F02D0C820FFF78FF840208DF8100039
:104C4000914A12681179904A5268107804AB012297
:104C5000FDF75DFB10B14FF0FF3024E778208DF8B1
:104C60001000894A12685179874A5268107804AB5B
:104C70000122FDF74CFB10B14FF0FF3013E78349E1
:104C80008889FFF769F800208DF810007E4A1268C5
:104C900051797D4A5268107804AB0122FDF737FB49
:104CA00010B14FF0FF30FEE6774A1268917A764AEB
:104CB0005268107804AB0222FDF783FA10B14FF06E
:104CC000FF30F0E69DF811009DF8101040EA012B2E
:104CD0000C209BFBF0F0C6B20020A8606860286042
:104CE000A06060602060824665E0674A1268D17A01
:104CF000654A5268107804AB0C22FDF762FA10B1D5
:104D00004FF0FF30CFE69DF811009DF8101040EAFB
:104D1000012000B2ADF808009DF813009DF81210B4
:104D200040EA012000B2ADF80A009DF815009DF898
:104D3000141040EA012000B2ADF80C00BDF90810D3
:104D4000206808442060BDF90A106068084460606B
:104D5000BDF90C10A0680844A0609DF817009DF8EC
:104D6000161040EA012000B2ADF800009DF81900CD
:104D70009DF8181040EA012000B2ADF802009DF83D
:104D80001B009DF81A1040EA012000B2ADF80400A3
:104D9000BDF90010286808442860BDF90210686851
:104DA00008446860BDF90410A8680844A8600AF1C6
:104DB000010000F0FF0AB24597DB3448D0F800C08C
:104DC0002868C117090441EA10410704624600231C
:104DD0003846FBF772FA32460023CDE90201FBF7B1
:104DE0006CFA28602948D0F800C06868C117090427
:104DF00041EA10410704624600233846FBF75DFA9A
:104E000032460023CDE90201FBF757FA68601F48DC
:104E1000D0F800C0A868C117090441EA104107048E
:104E2000624600233846FBF748FA32460023CDE9B4
:104E30000201FBF742FAA8601448D0F804C02168C8
:104E4000C817000440EA11480F04624600233846A0
:104E50004146FBF732FA32460023CDE90201FBF767
:104E60002CFA20600948D0F804C06068C117090412
:104E700041EA10410704624600233846FBF71DFA59
:104E80003246002304E00000140000205886000889
:104E9000CDE90201FBF711FA60601148D0F804C0B7
:104EA000A068C117090441EA1041070462460023C3
:104EB0003846FBF702FA32460023CDE90201FBF740
:104EC000FCF9A060A068002804DDA068A0F580308F
:104ED000A06003E0A06800F58030A0600020E2E55B
:104EE000588600082DE9FC5F06460F4600253D491F
:104EF0004968087801AB03220D21FDF762F910B172
:104F00000720BDE8FC9F9DF8040000F01F008DF80D
:104F100004009DF8050000F01F008DF805009DF8C5
:104F2000060000F01F008DF80600002456E056F839
:104F3000240057F82410A0EB010BBBF1000F01DB9C
:104F4000594601E0CBF10001084602F01FFB4FF08B
:104F50008F41009002F0E8F9814601A8005D68B336
:104F60002149086802F02AFB834659461F4802F08F
:104F7000DBF9804604E01E49404602F067FB8046AC
:104F800001A8005D401EC0B201A908550028F2D159
:104F90004146484602F0C8F983464FF07E5102F080
:104FA0005DFC82462AF0004B0F488169584602F0AA
:104FB00019FC12D20120A04005430EE00A48016905
:104FC000484602F00FFB05D307484169484602F006
:104FD00009FC02D20120A0400543641C032CA6DB7F
:104FE00028468EE7140000205886000800B04C4583
:104FF00054E3853F10B50446204600F00FF8034601
:10500000E01C00F00BF843EAC00083B2A01D00F0E2
:1050100005F843EA801083B2184610BD014691F9A5
:105020000020002A01DD00201EE091F90020002A66
:1050300001DA042018E091F90120002A01DD0120A5
:1050400012E091F90120002A01DA05200CE091F923
:105050000220002A01DD022006E091F90220002A48
:1050600001DA062000E00720704700008EB0002023
:105070000290FEF74FFE4FF4A060FDF7BFF9FCF77A
:1050800021FDFCF767FEFDF73BFA0020FDF7D8F99C
:105090000020FDF7E3F9FDF717F84FF4E13001F0D8
:1050A00019FB4FF4E130FEF7A7F941F61F41C72085
:1050B000FDF7EEFE41F61F41C720FDF785FE0120FA
:1050C00018237BA2002100900F20FDF7CDFC0120CA
:1050D000182379A21C2100900020FDF7C5FCFDF7E4
:1050E000B5FA11217748FEF70CF841F28830FEF747
:1050F00033FE10217448FEF706F841F28830FEF7BF
:105100002BFE03E0FDF784F9FDF7A0FA00F048FA62
:105110000028F7D1FDF77CF9FDF798FA012010235C
:105120006AA20F2100900020FDF79EFC01201023B1
:1051300068A21F2100900020FDF796FCFDF786FA7B
:10514000B4E00BAA0CA90DA800F018F90028F7D1BB
:1051500008AA09A90AA8FCF71BFE05AA06A907A820
:10516000FCF73EFE01205D4908605D48008800F4C0
:10517000004000283BD05A480088C0F30D0659A1D2
:105180005E48FEF78FF900240CE05D48005D03A93E
:10519000085500BF40215B48FEF75AF80128F9D1B5
:1051A000601C84B2B442F0DB002507E003A8405D38
:1051B00000F00F0003A94855681C85B2B542F5DB25
:1051C0009DF80C00012807D19DF80E009DF80D10E8
:1051D0000A2202FB010707E09DF80E009DF80D1062
:1051E0000A2202FB01077F4200203D49088001207E
:1051F00010210523CDE900100F2132200C9AFDF774
:10520000F7FA012010210523CDE900101F213220DB
:105210000B9AFDF7EDFAFDF719FA17F11E0F09D0F9
:1052200017F10F0F0CD00F2F07D01E2F0BD14FF0FF
:1052300014080BE04FF00D0808E04FF0120805E0ED
:105240004FF00E0802E04FF0100800BF00BF6FF4EF
:105250009371A9EB0100894519D009DC10F1370FD2
:1052600019D010F11E0F18D010F1140F17D110E043
:1052700019F1E60F09D019F1E10F04D019F1AF0FC0
:105280000DD100BF0DE000BF0BE000BF09E000BF83
:1052900007E000BF05E000BF03E000BF01E000BF82
:1052A00000BF00BF41460848FDF72DFF49E7000059
:1052B00057616974696E6700496E697469616C69E8
:1052C00073650000002C014000040040524F4C4C1C
:1052D0003A0000005941573A00000000A0812142E5
:1052E000680000200D0AC4FAB7A2CBCDB5C4CFFB2D
:1052F000CFA2CEAA3A0D0A0D0A00000000440040D9
:10530000FC040020003801407047000070B50446DE
:10531000002624F00104184890F8240008B1002069
:1053200070BD1548807A10B94FF0FF30F8E7124889
:10533000057C807A2040104908740846007CA04211
:1053400002D04FF0FF3600E0002614B90A48007D75
:1053500018B1012001F050F902E0002001F04CF9F1
:105360003CB100F0ABFC20B1034805744FF0FF30B6
:10537000D6E73046D4E70000140000202DE9F04FB6
:1053800099B004460D4616464FF07E574FF0000880
:105390004FF000094FF0000A12A813A918AB0EAA8B
:1053A000CDE9001014A916A8FEF7A4FE18B101203B
:1053B00019B0BDE8F08FBDF84C0000F480700028F3
:1053C0007ED00E9802F0E2F883464FF09D4101F046
:1053D000ABFF07460F9802F0D9F883464FF09D4186
:1053E00001F0A2FF8046109802F0D0F883464FF0FB
:1053F0009D4101F099FF8146119802F0C7F883465C
:105400004FF09D4101F090FF824639464FF08040B9
:1054100002F01CF94946059002F018F94146079040
:105420004FF0404002F012F95146059002F00EF99B
:105430000690079901F00AFF834601F0DBFECDE9F3
:105440000801FEF72DF94FF06632544BCDE90A0101
:1054500001F0F6FBCDE90C0101F0B8F920604946F6
:105460004FF0804002F0F2F84946029002F0EEF868
:10547000414604904FF0404002F0E8F84146029067
:1054800002F0E4F80390049902F0E8F983464FF043
:105490007E5101F0DBFE059001F0ACFECDE9080184
:1054A00039464FF0804002F0D1F84146039002F0B7
:1054B000CDF8494604904FF0804002F0C7F800E074
:1054C00068E05146039002F0C1F88346049901F068
:1054D000BDFE059001F08EFECDE90601DDE9082351
:1054E000FEF726FB4FF066322C4BCDE90A0101F0A6
:1054F000A7FBCDE90C0101F069F92860514650463F
:1055000002F0A4F849460490484602F09FF841464C
:105510000390404602F09AF839460190384602F06E
:1055200095F80090019901F091FE0290039902F024
:1055300095F98346049902F091F9059001F05AFE1D
:10554000CDE908015146384602F080F849460490FA
:10555000404602F07BF80390049901F077FE4FF08B
:105560008041059002F072F8834601F043FECDE9D8
:105570000601DDE90823FEF7DBFA4FF06632074B40
:10558000CDE90A0101F05CFBCDE90C0101F01EF947
:10559000306001E002200BE7002009E766A64C40DE
:1055A00070B50024FCF770FC00F024F9002840D10D
:1055B000782000F02FFFC4B20CB1012070BD78201C
:1055C000FFF7A4FEC4B20CB10220F7E7642000F09C
:1055D000D3FEC4B20CB10320F0E7FEF77FFDC4B2E6
:1055E0000CB10420EAE71548FFF704FD0546FEF775
:1055F000CFFFC4B20CB10520E0E740F27310FEF714
:1056000015FCC4B20CB10620D8E76420FEF7F0FE0A
:10561000C4B20CB10720D1E700F0A4FF04460CB1DE
:105620000820CBE7012000F0A3FDC4B21CB1092083
:10563000C4E70A20C2E70020C0E7000040000020C5
:1056400001461148407A30B1012807D0022808D01D
:1056500003280CD108E0022008700BE00420087039
:1056600008E00820087005E01020087002E04FF004
:10567000FF30704700BF0448C07C18B1087840066E
:10568000000E08700020F4E71400002001461348C3
:10569000407A30B1012808D002280AD0032810D15E
:1056A0000BE04FF4804008800EE041F69C700880CB
:1056B0000AE04FF48050088006E04FF40060088054
:1056C00002E04FF0FF30704700BF0448C07C10B1CB
:1056D0000888401008800020F5E700001400002032
:1056E00001460248007C087000207047140000202A
:1056F00001460F48007A30B1012807D0022809D0AE
:1057000003280FD10AE0FA2008800EE04FF4FA7067
:1057100008800AE04FF47A70088006E04FF4FA60DF
:10572000088002E00020088000BF00BF0020704712
:105730001400002001460E48007A30B1012807D03D
:10574000022808D003280CD108E00A4808600BE0C2
:105750000948086008E00948086005E00848086052
:1057600002E04FF0FF30704700BF0020FBE7000071
:10577000140000200000034300008342333303423F
:105780003333834101461248C07A082817D2DFE834
:1057900000F01704070A0D101318BC20088013E04E
:1057A0006220088010E02A2008800DE01420088084
:1057B0000AE00A20088007E00520088004E000BF16
:1057C00000BF0020088000BF00BF0020704700001D
:1057D000140000200146064890F8240010B14FF054
:1057E000FF3070470248C08908800020F9E70000B8
:1057F000140000201CB580208DF80000654A126856
:10580000917C644A526810786B460122FCF77FFD58
:1058100010B14FF0FF301CBD6420FEF79DFA002050
:105820008DF800005B4A1268917C5A4A52681078E1
:105830006B460122FCF76BFD10B14FF0FF30EAE739
:10584000544A1268917D534A526810786B4606227A
:10585000FCF7B7FC10B14FF0FF30DCE79DF8050016
:10586000C007400F9DF8031001F0010140EA41001C
:105870009DF8011001F0010140EA010494B1012CEE
:1058800003D101214348C17431E0022C03D100212E
:105890004048C1742BE021463FA0FAF74DFD4FF080
:1058A000FF30B8E73B4A1268D1783A4A526810781C
:1058B0006B460122FCF785FC10B14FF0FF30AAE7E0
:1058C0009DF8000000F00F042CB93D48FAF734FDB4
:1058D0004FF0FF309FE7042C06D13AA0FAF72CFDD9
:1058E00001212C48C17402E000212A48C174FF2123
:1058F00028488172FF2027490872FF2125484172FC
:10590000C1724FF6FF71C181FF21017481740121C1
:10591000017380F82210002180F823104175017571
:105920001630016041608160163880F8241080F8DC
:105930002510C1844FF4FA6000F062FC10B14FF002
:10594000FF3068E7022000F02BFB10B14FF0FF3072
:1059500061E72A2000F0CEFC10B14FF0FF305AE78B
:10596000322000F009FD10B14FF0FF3053E7002066
:10597000FFF7CCFC10B14FF0FF304CE7002000F0F7
:1059800051FB10B14FF0FF3045E7002000F042FD21
:10599000002040E714000020556E737570706F7220
:1059A00074656420736F6674776172652070726FBE
:1059B00064756374207265762025642E0A000000E9
:1059C0005CA6000848616C662073656E7369746933
:1059D00076697479207061727420666F756E642EBA
:1059E0000A0000002DE9F04385B005460E469046BA
:1059F0009946294890F8250020B14FF0FF3005B0B6
:105A0000BDE8F08316B94FF0FF30F8E7002423E03B
:105A1000281B102801DD102000E0281B87B2321956
:105A20003946204600F05EFD10B14FF0FF30E6E74A
:105A300001AA3946204600F001F910B14FF0FF30BD
:105A4000DDE730193A4601A9FAF7F4FD10B16FF01D
:105A50000100D4E7E01984B2AC42D9DB4FEA282038
:105A60008DF8000008F0FF008DF801000A4A126866
:105A7000917E094A526810786B460222FCF747FC77
:105A800010B14FF0FF30BAE70121034880F825102C
:105A9000A0F826900020B2E71400002038B5044694
:105AA000282C02DD4FF0FF3038BDDCB9002000F0BB
:105AB000EBFB00208DF8000007208DF801002E4A36
:105AC0001268917C2C4A526810786B460222FCF7CF
:105AD0001EFC10B14FF0FF30E6E7002126480175AB
