:020000040800F2
:10000000080D0020D5010008EF100008E9090008DC
:10001000D310000835080008C323000800000000C2
:10002000000000000000000000000000651900084A
:1000300039080008000000004F180008C91A00081D
:10004000EF010008EF010008EF010008EF010008D0
:10005000EF010008EF010008EF010008EF010008C0
:10006000EF010008EF010008EF010008EF010008B0
:10007000EF010008EF010008EF010008EF010008A0
:10008000EF010008EF010008EF010008EF01000890
:10009000EF010008EF010008EF010008EF01000880
:1000A000EF010008EF010008EF010008EF01000870
:1000B000EF0100082D1B0008EF010008EF01000808
:1000C000EF010008EF010008EF010008EF01000850
:1000D000EF010008D11E0008EF010008591F0008B9
:1000E000EF010008EF010008EF010008EF01000830
:1000F000EF010008EF010008EF010008EF01000820
:10010000EF010008EF010008EF010008EF0100080F
:10011000EF010008511E0008EF010008EF01000880
:10012000EF010008EF010008EF010008EF010008EF
:1001300000F002F800F03FF80AA090E8000C8244BA
:100140008344AAF10107DA4501D100F034F8AFF297
:10015000090EBAE80F0013F0010F18BFFB1A43F0A5
:1001600001031847B4940000D4940000103A24BF4F
:1001700078C878C1FAD8520724BF30C830C144BF0C
:1001800004680C607047000000230024002500264E
:10019000103A28BF78C1FBD8520728BF30C148BFEA
:1001A0000B607047642900F06780002070471FB51E
:1001B0001FBD10B510BD00F0F3FA1146FFF7F7FFB1
:1001C00003F0D8FF00F011FB03B4FFF7F2FF03BC0C
:1001D00002F093FA0948804709480047FEE7FEE726
:1001E000FEE7FEE7FEE7FEE7FEE7FEE7FEE7FEE7E7
:1001F00004480549054A064B70470000CD1A00081F
:100200003101000808070020080D0020080900201F
:1002100008090020704710B54C1084EA530404D537
:100220004042C1F1000138BF491E1B4204D5524271
:10023000C3F1000338BF5B1E00F056F914F0804F85
:1002400004D04042C1F1000138BF491E14F0004FF4
:1002500004D05242C3F1000338BF5B1E10BD000042
:100260000FB4044910B503AA029800F031FA10BC8B
:100270005DF814FB6C0000202DE9F04106460024D7
:1002800010687529314616A510D0AFF300800028FC
:1002900002DA404213A507E031688A0701D512A5AA
:1002A00002E0490704D511A5012401E0AFF3008065
:1002B00000210A2206F1240709E0B0FBF2FCB0FBA2
:1002C000F2F302FB1C00303078541846491C002819
:1002D000F3D123462A463046BDE8F04100F086B906
:1002E000000000002D0000002B0000002000000096
:1002F0002DE9F05F894604464FF0000ADFF874B13B
:10030000FB44C0F820A02046E1688847002874D04C
:10031000252806D0D4E901219047206A401C20629C
:10032000F1E700265F462046E16888472028054619
:1003300007DB312D05D2781910F8200C08B10643DF
:10034000F1E7B00701D526F00406C4F81CA0002789
:10035000C4F818A02A2D09D0284602F0C7F938B3EE
:1003600004EB8708303DC8F8185019E059F8041B11
:10037000204604EB87029161E1688847012F05461A
:1003800018D1E069002820DA26F020061DE0D8F810
:10039000180000EB800005EB40003038C8F818006A
:1003A0002046E1688847054602F0A0F90028EED112
:1003B000012F0AD02E2D08D12046E16888477F1CE6
:1003C0000546022F46F02006C4DBA069002803DAA8
:1003D000404246F00106A061F00701D026F0100669
:1003E0006C2D0BD0682D09D04C2D39D06A2D35D00D
:1003F000742D35D07A2D33D016E038E0E1682F46E1
:1004000020468847B842054609D16C2F26D04FF4C4
:100410008060E168064320468847054604E06C2F6B
:100420001AD04FF4807006430DB3A5F1410019288E
:1004300002D8203546F400664A4629462046266002
:100440004E46FFF7AFFE80B101280BD0F61D26F017
:10045000070000F1080956E74020E4E78020D8E7CC
:100460000020D6E706F104094DE7284652E7206A46
:10047000BDE8F09FBC91000040EA010310B59B0766
:100480000FD1042A0DD310C808C9121F9C42F8D0FE
:1004900020BA19BA884201D9012010BD4FF0FF30AF
:1004A00010BD1AB1D30703D0521C07E0002010BDC5
:1004B00010F8013B11F8014B1B1B07D110F8013B51
:1004C00011F8014B1B1B01D1921EF1D1184610BD32
:1004D00002F0FF0343EA032242EA024200F00CB9B1
:1004E000704770477047704753EA020C00F069800C
:1004F0002DE9F04B4FF00006002B1FBFB3FA83F538
:1005000003FA05F424FA05F65E4012BF1643B2FA68
:1005100082F502FA05F4C5F120051EBF22FA05FC9A
:1005200044EA0C04203556EA044C4FEA144418BF40
:10053000641C4FF000084FF00009904271EB030C6F
:1005400039D3002919BFB1FA81F701FA07F6B0FAD9
:1005500080F700FA07F6C7F120071EBF20FA07FC54
:1005600046EA0C062037B6FBF4FCA7EB0507103F64
:1005700007F01F0BCBF120060CFA0BFB2CFA06F64A
:1005800044BFB3460026202FA4BF5E464FF0000BA9
:100590005BEA060C08BF4FF0010B19EB0B09ABFB34
:1005A000027C48EB0608C01B06FB02CC0BFB03CC0D
:1005B00071EB0C01C1E70B46024641464846BDE8D7
:1005C000F08B13B54FF000004FF00001AFF3008047
:1005D000BDE81C40704710B500F0AEF8006810BDD3
:1005E00010B5044600F0A8F8046010BD2DE9F047EE
:1005F0000D4699469246044600F124080168880693
:1006000004D5E06921F01001216000E00120A8423A
:1006100001DD471B00E00027A1697A1902EB090000
:10062000081AA0612078C00602D42046AFF30080EB
:10063000002608E0D4E901211AF806009047206A54
:10064000401C761C20624E45F4DB2078C0060AD59B
:100650002046AFF3008006E0D4E901213020904726
:10066000206A401C2062381EA7F10107F4DC07E075
:10067000D4E9012118F805009047206A401C206247
:10068000281EA5F10105F3DC2046AFF30080207899
:10069000000602D50220BDE8F0870120FBE700003C
:1006A00001694A1C02610878704700B58FB0CDE936
:1006B00001310021059105497944CDE90310114626
:1006C0006846FFF715FE0FB000BD0000E5FFFFFF15
:1006D000074B70B50D467B44FFF7E7FF04462846FD
:1006E00000F02EF810B14FF0FF3070BD204670BD05
:1006F000D33300004FF000020429C0F0128010F044
:10070000030C00F02380CCF1040CBCF1020F18BFE5
:1007100000F8012BA8BF20F8022BA1EB0C0100F080
:1007200015B85FEAC17C24BF00F8012B00F8012B4B
:1007300048BF00F8012B704700487047A80600200A
:10074000007B00F0800070474FF0000200B51346B8
:1007500094469646203922BFA0E80C50A0E80C50E1
:10076000B1F12001BFF4F7AF090728BFA0E80C5092
:1007700048BF0CC05DF804EB890028BF40F8042B8B
:1007800008BF704748BF20F8022B11F0804F18BFF8
:1007900000F8012B7047000000487047A8060020B1
:1007A0007546FFF7F9FFAE4605006946534620F04F
:1007B0000700854618B020B5FFF71AFDBDE82040B8
:1007C0004FF000064FF000074FF000084FF0000B0D
:1007D00021F00701AC46ACE8C009ACE8C009ACE8C0
:1007E000C009ACE8C0098D46704710B50446AFF3A8
:1007F00000802046BDE81040FFF7E6BC08B50121A7
:10080000082001F035F84FF48070ADF8000010209A
:100810008DF8030003208DF802006946044800F0BB
:100820000CF84FF48071024800F0DCF808BD0000BD
:10083000000C014000BFFEE770472DE9F041024681
:1008400000250026002000230024002791F803C083
:100850000CF00F0591F803C00CF0100CBCF1000F68
:1008600003D091F802C04CEA050591F800C0BCF134
:10087000000F31D0146800202BE04FF0010C0CFA6F
:1008800000F3B1F800C00CEA03069E4220D18300B9
:100890004FF00F0C0CFA03F7BC4305FA03FC4CEACB
:1008A000040491F803C0BCF1280F06D14FF0010CED
:1008B0000CFA00FCC2F814C00AE091F803C0BCF1C5
:1008C000480F05D14FF0010C0CFA00FCC2F810C023
:1008D000401C0828D1D31460B1F800C0BCF1FF0F50
:1008E00034DD546800202EE000F1080C4FF00108C0
:1008F00008FA0CF3B1F800C00CEA03069E4221D1BD
:1009000083004FF00F0C0CFA03F7BC4305FA03FC0D
:100910004CEA040491F803C0BCF1280F05D100F1A2
:10092000080C08FA0CF8C2F8148091F803C0BCF166
:10093000480F07D100F1080C4FF0010808FA0CF835
:10094000C2F81080401C0828CED35460BDE8F08166
:10095000F0B50A46002300240021002500F00046DF
:10096000B6F1004F02D11D4EF16901E01B4E7168D6
:10097000C0F3034583B200F44016B6F5401F08D11A
:1009800021F07061154E766826F07066134F7E6018
:1009900012E000F48016B6F5801F06D1032606FA91
:1009A00005F4A14341F0706106E0460D360103FAFB
:1009B00006F6B14341F0706122B1460D360103FAEB
:1009C00006F6314300F00046B6F1004F02D1034E67
:1009D000F16101E0014E7160F0BD000000000140D6
:1009E000416170470161704700BFFEE710B5082103
:1009F0000A48FFF7F7FF02210948FFF7F3FF00F06D
:100A00003DF808210548FFF7EBFF00F037F8022119
:100A10000348FFF7E5FF00F031F810BD001001407A
:100A20000008014010B508210648FFF7D9FF022150
:100A30000548FFF7D7FF00F021F808210148FFF72C
:100A4000D1FF10BD001001400008014010B5082181
:100A50000848FFF7C7FF00F011F802210648FFF72A
:100A6000C1FF00F00BF802210348FFF7B9FF00F0C7
:100A700005F810BD0010014000080140032000BF30
:100A8000011EA0F10102D0B2FAD1704708B50121D0
:100A9000442000F0EDFE1C20ADF8000048208DF849
:100AA000030069460648FFF7C8FE0120ADF80000C4
:100AB00028208DF8030069460248FFF7BEFE08BDF6
:100AC000001801400008014008B50121042000F091
:100AD000CFFE0420ADF8000010208DF803000320A5
:100AE0008DF8020069460248FFF7A7FE08BD000026
:100AF000000801402DE9FC4104460D4616466B46B0
:100B000006223B21682000F00EFA0746BFB99DF887
:100B100001009DF8001040EA012000B220809DF8FD
:100B200003009DF8021040EA012000B228809DF8E1
:100B300005009DF8041040EA012000B230803846DC
:100B4000BDE8FC812DE9FC4104460D4616466B4686
:100B500006224321682000F0E6F90746BFB99DF858
:100B600001009DF8001040EA012000B220809DF8AD
:100B700003009DF8021040EA012000B228809DF891
:100B800005009DF8041040EA012000B2308038468C
:100B9000BDE8FC8110B500200E4908600E480068D1
:100BA00020F470400C4908600846006840F440504A
:100BB000086000200949C1F8AC0100F011F80120DB
:100BC0000449086000F00CF800200449C1F8A801AD
:100BD00010BD0000A8812142040C01400080214288
:100BE00010B5022002F062F910BD000008B5012125
:100BF000082000F03DFE4FF44060ADF800001020EA
:100C00008DF8030003208DF8020069460448FFF7C1
:100C100014FE4FF440610248FFF7E4FE08BD0000F7
:100C2000000C014010B500200E4908600E48006815
:100C300020F470400C4908600846006840F44050B9
:100C4000086001200949C1F8AC01FFF7C9FF012084
:100C500004490860FFF7C4FF00200449C1F8A80157
:100C600010BD0000A8812142040C014000802142F7
:100C700070B5054600241648006820F470401449F9
:100C800008600846006840F400400860002614E050
:100C9000002010490860FFF7A3FF01200E49C1F8AA
:100CA000A8016006040E0B487C38006808B1601C7F
:100CB000C4B2FFF795FF701CC6B2082EE8DB15B969
:100CC000FFF7B0FF01E0FFF765FF204670BD0000B1
:100CD000040C0140A88121420080214270B50446E5
:100CE0001248006820F47040104908600846006807
:100CF00040F44050086000200D490860002512E0D3
:100D0000E0090B49091D08606006040E012009492D
:100D1000C1F8A801FFF764FF002005490860FFF74C
:100D20005FFF681CC5B2082DEADB70BD040C0140F2
:100D3000A88121420080214210B50E48006820F4AD
:100D400070400C4908600846006840F44050086054
:100D50000120094908600949C1F8A801FFF740FFCF
:100D6000002005490860FFF73BFF00200349C1F858
:100D7000A80110BD040C0140AC8121420080214239
:100D800010B50E48006820F470400C490860084611
:100D9000006840F440500860002009490860094993
:100DA000C1F8AC01FFF71CFF0120054908600549A7
:100DB000C1F8AC01FFF714FF10BD0000040C0140A6
:100DC000A88121420080214210B500241448006807
:100DD00020F47040124908600846006840F4004062
:100DE000086001200F490860FFF7FAFE01200E4954
:100DF000C1F8A801FFF7F4FE07E0601CC4B2FA2CAA
:100E000003DDFFF7BDFF012010BD064880380068F4
:100E10000028F2D10349091F086000BFF4E7000071
:100E2000040C0140AC8121420080214238B50121EF
:100E3000084600F01DFD0121042000F019FD4FF4CB
:100E40000040ADF8000010208DF8030003208DF85D
:100E5000020069462248FFF7F0FC01212148FFF714
:100E600077FD002020490860FFF7C0FE80216B203D
:100E700000F0DDF8642001F0F3FF00216B2000F0AA
:100E8000D6F8032000F091F8002000F086F8322018
:100E900000F0B0F80021382000F0C9F800216A20E5
:100EA00000F0C5F80021232000F0C1F88021372090
:100EB00000F0BDF8752000F019F80446682C0BD13D
:100EC00001216B2000F0B3F800216C2000F0AFF896
:100ED000322000F08FF801E0012038BD0020FCE74F
:100EE0000008014000023000BC01214270B50446F8
:100EF000FFF722FFD020FFF7F1FEFFF765FF204646
:100F0000FFF7ECFEFFF760FFFFF716FFD120FFF7BA
:100F1000E5FEFFF759FF0020FFF7AAFE0546FFF7A1
:100F20002FFF284670BD2DE9F04106460F461446B6
:100F30001D46FFF701FF002141EA4601C8B2FFF755
:100F4000CDFEFFF741FF20B1FFF71AFF0120BDE8FA
:100F5000F0813846FFF7C2FEFFF736FFFFF7ECFEE1
:100F6000012101EB4601C8B2FFF7B8FEFFF72CFFE5
:100F70000DE0012C04D10020FFF77AFE287003E079
:100F80000120FFF775FE2870601EC4B26D1C002C96
:100F9000EFD1FFF7F5FE0020D9E710B50446E006D3
:100FA000010E1C2000F043F810BD10B50446E00609
:100FB000010E1B2000F03BF810BD70B50446002563
:100FC000BC2C01DB012510E0622C01DB02250CE0CA
:100FD0002A2C01DB032508E0142C01DB042504E0A6
:100FE0000A2C01DB052500E0062529461A2000F021
:100FF0001EF870BD70B50446B4F57A7F01DD4FF47C
:101000007A74042C00DA04244FF47A7090FBF4F024
:10101000401EC5B22946192000F009F805462646AB
:1010200004EBD671C1F34F00FFF7C7FF70BD70B579
:1010300005460C46FFF780FED020FFF74FFEFFF776
:10104000C3FE18B1FFF79CFE012070BD2846FFF7D4
:1010500045FEFFF7B9FE2046FFF740FEFFF7B4FE5E
:1010600018B1FFF78DFE0120EFE7FFF789FE0020A2
:10107000EBE72DE9F04105460E4617469846FFF787
:101080005BFE002141EA4501C8B2FFF727FEFFF7EA
:101090009BFE20B1FFF774FE0120BDE8F0813046D1
:1010A000FFF71CFEFFF790FE00240CE018F8040088
:1010B000FFF714FEFFF788FE18B1FFF761FE01206D
:1010C000EBE7601CC4B2BC42F0DBFFF759FE002026
:1010D000E3E700BFFEE710B504460021204605F017
:1010E0009BFB01D8204610BD84F00040FBE7704711
:1010F00070B5002100230F22C47804B3154C246876
:1011000004F4E064C4F5E064210AC1F10403CA40B8
:10111000447804FA03F184781440214309010E4C09
:101120000678A155047804F01F050124AC40057829
:101130006D11AD0005F1E025C5F8004109E0047826
:1011400004F01F050124AC40044D0678761145F8E3
:10115000264070BD0CED00E000E400E080E100E01E
:1011600002490143024A1160704700000000FA057D
:101170000CED00E070B500240CE0002506E0002036
:10118000074901EBC5010855681CC5B2802DF6DB87
:10119000601CC4B2082CF0DB00F00AF970BD00003E
:1011A0008400002010B504461CB90021A62000F0E0
:1011B00032FB012C03D10021A72000F02CFB10BD35
:1011C00010B504463CB90021C82000F024FB0021E2
:1011D000A12000F020FB012C07D10021C02000F04D
:1011E0001AFB0021A02000F016FB10BDF0B514463C
:1011F0000B46CF1701EB5777C7F3C702CF1701EBA9
:101200005777FF10A1EBC707FEB20123B340DDB251
:101210004CB1134B03EBC0039B5C2B43104F07EB0C
:10122000C007BB541AE00E4B03EBC0039B5CDB43CF
:101230000B4F07EBC007BB54094B03EBC0039B5C90
:101240002B43074F07EBC007BB54054B03EBC00311
:101250009B5CDB43024F07EBC007BB54F0BD0000B3
:101260008400002008B50121042000F001FB0121C9
:10127000102000F0FDFA0220ADF8000014208DF8D7
:10128000030003208DF8020069464148FFF7D5FAB4
:1012900002213F48FFF7A6FB0820ADF8000014200C
:1012A0008DF8030003208DF8020069463948FFF7E6
:1012B000C4FA08213748FFF795FB0021AE2000F063
:1012C000AAFA0021084600F0A6FA0021102000F03A
:1012D000A2FA0021402000F09EFA0021812000F0B7
:1012E0009AFA0021CF2000F096FA0021A12000F008
:1012F00092FA0021C82000F08EFA0021A62000F00A
:101300008AFA0021A82000F086FA00213F2000F090
:1013100082FA0021D32000F07EFA0021084600F076
:101320007AFA0021D52000F076FA0021802000F022
:1013300072FA0021D92000F06EFA0021F12000F0AD
:101340006AFA0021DA2000F066FA0021122000F08B
:1013500062FA0021DB2000F05EFA0021302000F06C
:101360005AFA0021202000F056FA0021022000F055
:1013700052FA00218D2000F04EFA0021142000F0D6
:101380004AFAFFF7F7FE0021AF2000F044FA08BD4B
:10139000000801400010014010B50246012000E0A5
:1013A00050430B1EA1F10104E1B2F9D110BD0000C0
:1013B00070B500242BE004F1B001C8B2002100F0A8
:1013C0002AFA0021084600F026FA0021102000F039
:1013D00022FAFFF70BFB782000F0C6FAFFF736FB86
:1013E000402000F0C1FAFFF731FB002509E0094970
:1013F00001EBC501085D00F0B7FAFFF727FB681C99
:10140000C5B2802DF3DBFFF70DFB601CC4B2082CC6
:10141000D1DB70BD840000202DE9FE4F07468846D1
:1014200092461C460197CDF80080082C02D14FF05F
:1014300006091FE02046E31704EB5373DB10214637
:101440004FEAE47C04EB5C7C4FEAEC0CA4EBCC0CA4
:10145000BCF1000F02D04FF0010C01E04FF0000C86
:101460006344224604EBD27C4FEA6C0C03FB0CF382
:1014700003F0FF09AAF12000C6B200255EE0082CA7
:1014800007D106EB46002F4901EB400010F805B0EC
:101490001DE00C2C07D106EB46002B4901EB800028
:1014A00010F805B013E0102C05D1284800EB061009
:1014B00010F805B00BE0182C07D106EBC600244944
:1014C00001EB800010F805B001E0BDE8FE8F0020C0
:1014D00002901CE00BF0010028B1414638460C9AFE
:1014E000FFF784FE09E00C9808B9012000E0002015
:1014F000024641463846FFF779FE4FEA6B0B08F18A
:10150000010000F0FF080298401CC0B2029002984F
:101510000828DFDB781CC7B2082C0BD004EBD47191
:101520004A100199791A8A4204D1019F0098083023
:10153000C0B20090DDF80080681CC5B24D459EDB4E
:1015400000BFC2E7B0760008D87800084C7D0008DC
:101550003C8300082DE9FF4F87B005461746DDE9BB
:1015600014643846FFF7B7FD0690069804F0ECFFC8
:10157000642190FBF1F9069804F0E6FF0A2190FB44
:10158000F1F090FBF1F201FB120808EB8801480032
:1015900005F016F86421029009FB01F005F010F83F
:1015A0000190069905F069F98346029905F070F9F2
:1015B000824604F0C9FF0590069804F0C5FF01902B
:1015C00004F0FEFF8346069905F057F95A49029048
:1015D00005F056F8824604F0B7FF0490069804F030
:1015E000B3FF019004F0ECFF8346069905F045F93E
:1015F0008246524905F044F8029004F0A5FF0A2102
:1016000090FBF1F201FB120003900021384605F037
:1016100003F944D833462B22009428460899FFF753
:10162000FBFE05F10801C8B201234A46CDE900647A
:10163000089900F085F805F11001C8B2012342466F
:10164000CDE90064089900F07BF805F11801C8B2F3
:101650000123CDE90064059A089900F071F805F1BD
:101660002001C8B233462E2200940899FFF7D4FE19
:1016700005F12801C8B20123CDE90064049A089954
:1016800000F05EF805F13001C8B20123CDE9006435
:10169000039A089900F054F8FFF78AFE48E0002109
:1016A000384604F0B9FF43D233462D220094284631
:1016B0000899FFF7B1FE05F10801C8B201234A46B7
:1016C000CDE90064089900F03BF805F11001C8B2BB
:1016D00001234246CDE90064089900F031F805F194
:1016E0001801C8B20123CDE90064059A089900F0F9
:1016F00027F805F12001C8B233462E22009408993C
:10170000FFF78AFE05F12801C8B20123CDE9006484
:10171000049A089900F014F805F13001C8B20123C9
:10172000CDE90064039A089900F00AF8FFF740FE3B
:101730000BB0BDE8F08F0000000020410000C8425F
:101740002DE9FF4F82B0064691461F46DDE90F4A5C
:101750004FF0000B082C01D14FF0020B002530E0B8
:10176000781B401EC1B20A20FFF716FEB9FBF0F04D
:101770000A21B0FBF1F201FB1208B8F1000F0ED103
:1017800004EBD4710BEB610101FB0561C8B2234688
:101790003022CDE900A40399FFF73EFE0FE004EBF1
:1017A000D4710BEB610101FB0561C8B208F1300196
:1017B000CAB22346CDE900A40399FFF72DFE681CA9
:1017C000C5B2BD42CCDB06B0BDE8F08F2DE9F841D3
:1017D00006460F4614461D46DDF81C8013E0CDF882
:1017E000008022782B4639463046FFF715FE082D3B
:1017F00002D1B01DC6B205E0284605EBD07106EB5C
:101800006101CEB2641C2078202802DB20787E287B
:10181000E5DDBDE8F88170B505460C46FFF7E6F852
:10182000782000F0A1F8FFF711F91CB1402000F07A
:101830009BF802E0002000F097F8FFF707F9284630
:1018400000F092F8FFF702F9FFF7ECF870BD70476F
:1018500029B1064AD2690243044BDA6104E0034A23
:10186000D2698243014BDA617047000000100240E8
:1018700029B1064A92690243044B9A6104E0034A83
:1018800092698243014B9A61704700000010024048
:1018900030B500210022002400232D4D6D6805F095
:1018A0000C0121B1042905D0082923D105E0294DD7
:1018B000056022E0274D05601FE0254D6D6805F4A9
:1018C0007012234D6D6805F48034022505EB9242B9
:1018D0001CB9214D554305600BE01D4D6D6805F4A5
:1018E00000351DB11C4D5543056002E0194D5543AF
:1018F000056002E0174D056000BF00BF144D6D6824
:1019000005F0F0010909154D6B5C0568DD40456087
:101910000F4D6D6805F4E061090A104D6B5C456878
:10192000DD4085600A4D6D6805F46051C90A0B4DB4
:101930006B5C4568DD40C560054D6D6805F4404150
:10194000890B074D6B5CC568B5FBF3F5056130BDD0
:101950000010024000127A0000093D0053000020F0
:10196000630000207047000070B5044600251BE0AE
:1019700004F0800020B108210D48FFF733F803E0A0
:1019800008210B48FFF72CF8FFF778F802210948E7
:10199000FFF728F8FFF772F802210648FFF720F852
:1019A0006006040E681CC5B2082DE1DB70BD0000A6
:1019B000001001400008014010B500F001F810BD12
:1019C0000CB50020019000903348006840F480304E
:1019D0003149086000BF3048006800F400300090D2
:1019E0000198401C0190009818B90198B0F5A06FBB
:1019F000F1D12948006800F4003010B101200090B6
:101A000001E0002000900098012843D1234800689D
:101A100040F01000214908600846006820F00300EB
:101A200008600846006840F0020008601A484068F4
:101A3000194948600846406848600846406840F4D4
:101A4000806048600846406820F47C104860084682
:101A5000406840F4E81048600846006840F0807034
:101A6000086000BF0C48006800F000700028F9D042
:101A70000948406820F0030007494860084640686C
:101A800040F00200486000BF0348406800F00C00CE
:101A90000828F9D10CBD00000010024000200240CF
:101AA000042808D14FF0E021096941F004014FF00A
:101AB000E022116107E04FF0E021096921F0040103
:101AC0004FF0E022116170477047000010B51348D5
:101AD000006840F00100114908600846406810495C
:101AE00008400E494860084600680E4908400B4906
:101AF00008600846006820F48020086008464068B6
:101B000020F4FE0048604FF41F008860FFF754FF88
:101B10004FF000600449086010BD00000010024052
:101B20000000FFF8FFFFF6FE08ED00E010B5012110
:101B3000084800F07EF858B10121064800F06AF824
:101B40000548006808B9012000E00020024908604B
:101B500010BD0000000400408801214230B589B06A
:101B600005460C4601210220FFF772FE01210420E8
:101B7000FFF77EFE8020ADF8200018208DF82300AE
:101B800003208DF8220008A92048FEF756FE4020C9
:101B9000ADF8200018208DF8230003208DF82200D6
:101BA00008A91A48FEF749FEADF81850ADF81440E0
:101BB0000020ADF81A00ADF8160005A9144800F091
:101BC000F5F86020ADF804000120ADF80600002013
:101BD000ADF80C0001A90E4800F092F86020ADF8B5
:101BE00004000120ADF806000020ADF80C0001A9AA
:101BF000074800F02FF80821054800F077F8012188
:101C0000034800F00AF809B030BD000000080140A8
:101C100000040040CA430282704721B1028842F0AA
:101C20000102028004E002884FF6FE731A4002802F
:101C3000704730B50246002000230024158A05EACB
:101C40000103958905EA010413B10CB1012000E0FC
:101C5000002030BD70B5002400220023058C4FF613
:101C6000FE7635400584028C8388048B4FF68F7591
:101C70002C40B51E2C400D882C43751E2A400D8922
:101C80002A434D882A43144DA8420BD0134DA84235
:101C900008D0134DA84205D0124DA84202D0124DD3
:101CA000A84213D14FF6F7752A404D892A434FF6C3
:101CB000FB752A408D882A434FF6FF652B404FF66F
:101CC000FF552B408D892B43CD892B438380048383
:101CD000CD888586028470BD002C0140003401400F
:101CE0000040014000440140004801400A460021F4
:101CF000018B4FF6F77319401143018370470000C1
:101D000070B5002400220023058C4FF6EF76354095
:101D10000584028C8388048B48F6FF752C404FF6AF
:101D2000FF452C400D884FF6FF7606EA05252C432B
:101D30004FF6DF752A400D8906EA05152A434D88BE
:101D400006EA05152A43154DA84202D0144DA842B3
:101D50001DD14FF67F752A404D894FF6FF7606EA72
:101D600005152A434FF6BF752A408D8806EA0515EA
:101D70002A434FF6FF352B404FF2FF752B408D89DC
:101D800006EA85052B43CD8906EA85052B4383802A
:101D90000483CD880587028470BD0000002C0140BB
:101DA0000034014081867047018770470022028815
:101DB0001D4B98420ED01D4B98420BD0B0F1804F76
:101DC00008D01B4B984205D01A4B984202D01A4BB0
:101DD000984204D14FF68F731A404B881A43174B21
:101DE000984207D0164B984204D04FF6FF431A4052
:101DF000CB881A4302808B8883850B8803850A4B26
:101E000098420BD0094B984208D00E4B984205D00F
:101E10000D4B984202D00D4B984201D10B7A0386AC
:101E20000123838270470000002C014000340140F0
:101E30000004004000080040000C0040001000407A
:101E400000140040004001400044014000480140AF
:101E50001C49098801F0200109B31A498988C8B2D0
:101E60001949097801F08001C9B91749097801F0C9
:101E7000400161B10A2803D00021134A117020E00B
:101E80001149097841F080010F4A117019E00D28BD
:101E900006D10D49097841F040010B4A117010E05C
:101EA0000949097801F03F01084A50540649097868
:101EB000491C054A1170114609783F2901DD0021AE
:101EC000117070470050004070000020E0050020B5
:101ED00010B540F225511D4800F0B2F910B31B486F
:101EE00000F06AFAC4B21A48008800F40040C8B989
:101EF0001748008800F4804060B10A2C03D000200D
:101F00001349088020E01248008840F4004010493E
:101F1000088019E00D2C06D10D48008840F480405F
:101F20000B49088010E00A480088C0F30D000949F9
:101F30000C5407480088401C054908800846008862
:101F4000C72801DD0020088010BD000000380140D6
:101F50004A000020040500207CB540F2255171485C
:101F600000F06EF900281BD040F225516D4800F0BA
:101F70003FF96C4800F020FAC5B26B48007880B990
:101F80002C2D0ED10120684908706848017800782E
:101F9000401C664A1070664820F81150FFF708FA96
:101FA000BEE06148007801280ED1122D0CD102202C
:101FB0005D4908705D4801780078401C5B4A1070EC
:101FC0005B4820F81150ABE057480078022835D123
:101FD000564801780078401C544A1070544820F844
:101FE0001150104600780A2801DA5B2DD8D1032061
:101FF0004D49087001204F4908704C480078401F37
:102000004B4911F810004C49087048480078001FEF
:10201000474911F810004949087044480078C01E2B
:10202000434911F810004649087040480078801E66
:102030003F4911F810004349087071E03A480078B0
:1020400003285ED139480078401E394931F8100024
:102050005B2846D1002240F22551324800F01AF99F
:102060003448007878B3FFF785F8FFF7A1F901202D
:1020700010210323CDE900102F48027800210846E3
:10208000FFF75EFB012010210323CDE900102B4850
:10209000027811210020FFF753FB012010210323B8
:1020A000CDE900102648027821210020FFF748FBE7
:1020B000012010210323CDE90010224802783121AC
:1020C0000020FFF73DFB00201A49087017490870EF
:1020D00015490870012240F22551124800F0DAF843
:1020E0001EE000201049087010490870002405E027
:1020F00000200F4921F81400601CC4B20A2CF7DB41
:102100000EE000200849087008490870002405E026
:102110000020074921F81400601CC4B20A2CF7DB28
:102120007CBD00000048004051000020500000200D
:10213000CC050020520000204C0000204D00002063
:102140004E0000204F00002000B587B00121302054
:10215000FFF78EFB01210805FFF77AFB4FF4805053
:10216000ADF8180003208DF81A0018208DF81B0018
:1021700006A91C48FEF761FB0420ADF818008DF895
:102180001B0006A91848FEF758FB4FF4E1300290F7
:102190000020ADF80C00ADF80E00ADF81000ADF861
:1021A00014000C20ADF8120002A9104800F098F8B5
:1021B00035208DF8040000208DF805008DF806000C
:1021C00001208DF8070001A8FEF792FF012240F2DE
:1021D0002551064800F05EF80121044800F017F888
:1021E00007B000BD00100140001401400050004045
:1021F00010B50022002340F66A14A14200D100BFAE
:102200000A1201249440A3B2DC43048010BD21B122
:10221000828942F40052828104E082894DF6FF7384
:102220001A408281704702460020B1F5007F00D13C
:1022300000BF13880B400BB1012000E00020704765
:1022400070B50246002400230025002040F66A16DF
:10225000B14200D100BFC1F3421501F01F030126B6
:1022600006FA03F3012D02D19689334006E0022DD0
:1022700002D1168A334001E0968A33400C120126BF
:1022800006FA04F41688344013B10CB1012000E0C2
:10229000002070BDF0B50346002400260025002074
:1022A00040F66A17B94200D100BF1846C1F3421484
:1022B00001F01F06012707FA06F5012C01D10C30A9
:1022C00004E0022C01D1103000E014301AB107688C
:1022D0002F43076002E00768AF430760F0BD0000CE
:1022E0002DE9F04786B005460E460024A24600BF01
:1022F000A1460027B08900B100BF2F462C8A4CF6BA
:10230000FF700440F08804432C82AC894EF6F31031
:102310000440B08831890843718908430443AC8183
:10232000AC8A4FF6FF400440B0890443AC8201A858
:10233000FFF7AEFA1F48874202D1DDF810A001E096
:10234000DDF80CA0A88900F4004040B10AEBCA00F7
:1023500000EB0A1031684900B0FBF1F807E00AEB26
:10236000CA0000EB0A1031688900B0FBF1F8642064
:10237000B8FBF0F004012009642101FB1089A88951
:1023800000F4004040B1322000EBC900B0FBF1F096
:1023900000F00700044308E0322000EB091064213C
:1023A000B0FBF1F000F00F0004432C8106B0BDE853
:1023B000F08700000038014001468888C0F308001B
:1023C000704700BFFEE7000010B586B0044601214B
:1023D0000420FFF74DFA01218803FFF749FA18207E
:1023E0008DF817004FF40070ADF8140003208DF83D
:1023F000160005A91E48FEF720FA04208DF81700E4
:102400000002ADF8140003208DF8160005A9184845
:10241000FEF713FA01940020ADF810000C20ADF87F
:102420000E000020ADF80C00ADF80A00ADF8080071
:1024300001A91048FFF754FF01210E48FFF7E7FEFE
:10244000012240F225510B48FFF724FF25208DF88B
:10245000000001208DF8030000208DF8010002200B
:102460008DF802006846FEF743FE06B010BD00007E
:10247000000801400038014010B586B00446012133
:102480002020FFF7F5F901214804FFF7E1F90121C8
:102490000846FFF7EDF901210820FEF759FA182048
:1024A0008DF817002020ADF8140003208DF81600D9
:1024B00005A91E48FEF7C1F904208DF81700402039
:1024C000ADF8140003208DF8160005A91748FEF793
:1024D000B4F901940020ADF810000C20ADF80E0006
:1024E0000020ADF80C00ADF80A00ADF8080001A915
:1024F0000F48FFF7F5FE01210D48FFF788FE012286
:1025000040F225510A48FFF7C5FE26208DF800004D
:1025100001208DF8030000208DF801008DF80200E5
:102520006846FEF7E5FD06B010BD0000001401404E
:102530000044004010B586B0044601212020FFF77A
:1025400097F901218804FFF783F901210846FFF775
:102550008FF901212448FEF7FBF918208DF81700A8
:102560004FF48070ADF8140003208DF8160005A913
:102570001E48FEF762F904208DF81700C001ADF87F
:10258000140003208DF8160005A91848FEF755F928
:1025900001940020ADF810000C20ADF80E000020D2
:1025A000ADF80C00ADF80A00ADF8080001A910481C
:1025B000FFF796FE01210E48FFF729FE012240F2A7
:1025C00025510B48FFF766FE27208DF800000120FB
:1025D0008DF8030000208DF801008DF80200684698
:1025E000FEF786FD06B010BD300014000014014057
:1025F00000480040490050EAC12018BF04204A0D9D
:1026000018BF40F0010040F2FF72B2EB515F08BF0B
:1026100040F00200012808BF052070472DE9F04175
:102620004F1E00EBC7010446D1E9000115461E46C6
:1026300037F006020DD02A46334603F01BFB7F1EFF
:1026400004EBC703D3E9002303F00CF937F00602CB
:10265000F1D1022F25D0042F13D0062F18BFBDE8CB
:10266000F0812A46334603F005FBD4E90A2303F040
:10267000F9F82A46334603F0FDFAD4E9082303F0BB
:10268000F1F82A46334603F0F5FAD4E9062303F0BD
:10269000E9F82A46334603F0EDFAD4E9042303F0BF
:1026A000E1F82A46334603F0E5FAD4E9022303F0C1
:1026B000D9F82A46334603F0DDFAD4E90023BDE811
:1026C000F04103F0CFB8012204F089B903F0CAB891
:1026D000002213461046114603F074B9024A002046
:1026E000110704F07CB9000001FDFFFF30380A2813
:1026F00001D20120704700207047014600BF70479B
:102700002DE9FE4F06460F460025684601F0DCF92C
:10271000002442E056F8240057F82410A0EB010AE8
:10272000BAF1000F01DB514601E0CAF10001084691
:1027300003F046FF83464FF08F4103F00FFE8046C3
:102740005DF82400002103F0CBFE16D05DF82410C4
:10275000404603F003FE82464FF07E5104F098F8A5
:10276000814629F0004A0F48416A504604F054F867
:1027700012D20120A04005430EE00A48C16940463C
:1027800003F04AFF05D30748016A404604F044F8C5
:1027900002D20120A0400543641C032CBADB28466A
:1027A000BDE8FE8F887600082DE9F04D8D4F21F0B1
:1027B000004A86B005460C46BA452ADBAAEB07005C
:1027C00028430AD08848824501DC1AD1CDB106B031
:1027D0002846BDE8F04DFFF776BF844A844B284673
:1027E00003F048FA07460E46824A834B28462146A4
:1027F00003F040FA06B03A463346BDE8F04D03F028
:1028000031B80120FDF7ECFE06B0BDE8F04DFFF752
:102810005FBF7A48824542DABAF1795F0BDA28461F
:10282000FFF7E8FE042808BFFFF758FF284606B068
:102830002146BDE8F08D2A460B46104603F01AFAF1
:10284000834602466E480E460B4606217844FFF743
:10285000E5FE5A46334603F00DFA804669488A463B
:102860005A46334604217844FFF7D8FE5A46334689
:1028700003F000FA00223B4602F0F4FF02460B464A
:102880004046514603F09EF82A46234603F0F2F9EB
:1028900006B02A462346BDE8F04D02F0E3BF2846C5
:1028A00024F0004100223D463B4603F0E1FA4FF0A0
:1028B000FF3204F094F80646024653480F460B4692
:1028C00006217844FFF7AAFE32463B4603F0D2F9D0
:1028D000CDE900014D4832463B4604217844FFF7DC
:1028E0009DFE32463B4603F0C5F900222B4602F01E
:1028F000B9FF834602913046394602F05BFF8046BD
:1029000043480D46504517DCDDE900015A46029B5D
:1029100003F058F842462B4603F0ACF942462B46EA
:1029200002F0A0FF012204F05AF8304A304B03F0C5
:1029300091FB304A304B4CE04FF0000A52460B46B8
:10294000404602F08FFFCDE9031052462B46104659
:10295000194603F08FF932463B4603F089FADDE968
:10296000033203F02FF806460F46DDE900015A4610
:10297000029B03F027F88346009101223046394636
:1029800004F02DF8194A1A4B03F072FA06460F4666
:1029900001224046294604F022F85A46009B03F0E3
:1029A00069F932463B4603F055FB06460F460122C5
:1029B0005046294604F013F80E4DDFF858802A4699
:1029C000434603F055FA32463B4603F051FA2A4695
:1029D000434603F04DFA002CD8BF81F0004106B009
:1029E000BDE8F08D0000F03F0000F07F075C14337D
:1029F00026A6913C182D4454FB21F93F0000E03FEE
:102A0000886C00009E6C0000126C0000286C0000B6
:102A10003333EF3FFB21E93F2DE9F84F04460D46E4
:102A200021F0004000917349814211DC72498842D3
:102A300001DC06D12CB120462946BDE8F84FFFF74E
:102A400042BE6E48002DCCBF6D496E49BDE8F88F7F
:102A50006D49814211DD6D498142D8BF4FF0FF368B
:102A60006DDD20462946FFF7C5FD042808BFFFF7A6
:102A700035FE20462946BDE8F88F6549654F25F0AB
:102A80000045814233DD6449814219DD002632462A
:102A90004FF080432046294602F0E4FE80468A46F5
:102AA00001222046294603F09AFF00223B4603F00C
:102AB000D1FA4246534602F085FF04460D463EE0F9
:102AC00001260022BA463B462046294602F0CAFEAD
:102AD00080460F46002253462046294603F0BAFAA4
:102AE00042463B4602F06EFF04460D4627E04B4946
:102AF00081421BDDDFF828A1022600225346204632
:102B0000294603F0B7F800223B4602F0ABFE8046B0
:102B10000F46002253462046294603F09BFA4246C0
:102B20003B4602F04FFF04460D4608E003262246CE
:102B30002B4600203B4902F045FF04460D46224645
:102B40002B461046194603F095F88B4682460246FE
:102B50000B4603F08FF807460246334888460B467B
:102B600006217844FFF75AFD52465B4603F082F88F
:102B700082462E488B463A46434605217844FFF765
:102B80004DFD3A46434603F075F802460B46002ECB
:102B9000504659460CDA02F065FE22462B4603F0F9
:102BA00069F801B022462B46BDE8F04F03F060B94A
:102BB00002F058FE22462B4603F05CF81C4A7A4489
:102BC00002EBC603D3E9002303F044FA22462B4666
:102BD00003F040FA174A7A4402EBC603D3E9002314
:102BE00003F046F9009A002AB8BF81F00041BDE821
:102BF000F88F0000000010440000F07F182D4454AE
:102C0000FB21F93FFB21F9BF0000DC3F0000203E23
:102C10000000F33F0000F03F0000E63F008003406B
:102C20000000F83F0000F0BF2A6A0000E8690000D9
:102C3000866900004E6900002DE9F04D9446CCF104
:102C4000000423F000464CEA0404524F46EAD474D0
:102C50009A46884621F00042BC4206D8454240EAE6
:102C6000050442EAD474BC4204D9BDE8F04D624682
:102C7000FFF72CBDAAF14055A5F17F6555EA0C047C
:102C80000BD0022404EAAA74434DDFF810E144EAB1
:102C9000D87452EA000B04D00CE0BDE8F04DFFF709
:102CA000BBBE002C14BF012CBDE8F08D022C30D02F
:102CB000032C32D056EA0C0B0AD0BE4220D1BA42C5
:102CC00009D126F0804622F080423346114617E0B3
:102CD00000291ADB25E0DFF8C8B0FB44002C04BF54
:102CE000DBE90001BDE8F08D012C02BFDBE900014A
:102CF00081F00041BDE8F08D022C0AD0032C0CD0ED
:102D0000BA4212D1B8F1000F0BDA23482549BDE8C9
:102D1000F08D28462449BDE8F08D28467146BDE86F
:102D2000F08D1D482149BDE8F08D921B12153C2AFB
:102D3000C4BF19481D490EDCBAF1000FBEBF12F125
:102D40003C0F0020014606DB624602F03BFE21F00C
:102D50000041FFF761FE002C08BFBDE8F08D012C9B
:102D600004BF81F00041BDE8F08D114A114B022CE7
:102D700007D003F06FF92A46BDE8F04D0A4B03F087
:102D800069B903F067F92A46BDE8F04D064B03F038
:102D90006FB800000000F07F182D4454FB2109C0DB
:102DA000E2680000FB21F9BFFB210940FB21F93F4C
:102DB000075C143326A6A13C2DE9F0410446E078D7
:102DC00000F0C006E07800F03F05607800F00100F8
:102DD00098B1EF102846E91705EB5171C910A5EB22
:102DE000C101491C01F0FF080B48006820B10A48E6
:102DF000414602683846904700BF607800F00800FE
:102E000030B10548406818B1B011034A516888478D
:102E10000020BDE8F08100007400002010B56FF0C4
:102E20000400FEF73DFE0A4800680A49B0FBF1F0D5
:102E3000094908700846007800EB4001C1EBC0105A
:102E40004FF6FF7101EAC0000449088010BD000080
:102E50000000002000127A00680000206A000020B4
:102E60000146114A12884A434FF0E0235A6100227A
:102E70009A611A46126942F001021A6100BF4FF0CE
:102E8000E022106900F001021AB100F48032002A39
:102E9000F5D04FF0E022126922F001024FF0E0235A
:102EA0001A6100229A6170476A0000200146114AA7
:102EB00012784A434FF0E0235A6100229A611A4681
:102EC000126942F001021A6100BF4FF0E02210695E
:102ED00000F001021AB100F48032002AF5D04FF060
:102EE000E022126922F001024FF0E0231A61002271
:102EF0009A6170476800002038B5044664B120200C
:102F00008DF8000028208DF8010030208DF8020097
:102F100038208DF8030004E0A32204216846FDF761
:102F2000D7FA6A46042140F69E2002F071FB01F0B8
:102F30005BFF38BD3EB5044602208DF80000CA2074
:102F40008DF80100E3208DF8020009208DF80300C0
:102F50006A460421682002F05BFBA3208DF8000084
:102F600004F0400048B1C0208DF80100C8208DF861
:102F70000200C2208DF8030006E0A3208DF80100B6
:102F80008DF802008DF8030004F4C07048B1C4202D
:102F90008DF80400CC208DF80500C6208DF80600C1
:102FA00006E0A3208DF804008DF805008DF80600DA
:102FB000A3208DF807008DF808008DF809006A46F7
:102FC0000A2140F6A72002F023FB04F0030018B109
:102FD00020208DF8000002E0D8208DF800006A461D
:102FE000012140F6B62002F013FB04F0200018B1D6
:102FF000012000F0ADF802E0002000F0A9F804F490
:10300000C07008B304F4807060B1B2208DF8000085
:103010008B208DF80100B6208DF802009B208DF8E2
:1030200003000BE0B0208DF8000080208DF8010037
:10303000B4208DF8020090208DF803006A46042128
:1030400040F6A22002F0E4FA04F0010020B3F820D8
:103050008DF800006A4601214FF40B6002F0D8FAA7
:10306000FA21072000F02CFC072000F0F3FB0120E0
:1030700000F013FC642000F0F3FC4FF4FA7000F051
:1030800002FDC821304800F0A3FB282000F0BCFB63
:103090000A2000F0CCFB08E0D8208DF800006A463A
:1030A00001214FF40B6002F0B3FA04F0020018B1F2
:1030B000D9208DF8000002E0D8208DF800006A4683
:1030C000012140F23D7002F0A3FA04F0040018B1AF
:1030D000012000F069F802E0002000F065F804F03B
:1030E000100018B10120FFF707FF02E00020FFF7F2
:1030F00003FF44F008001549488101F075FE0020E7
:103100001249887304F0400018B10846807B801D86
:10311000887304F4C07020B10C48807B801D0B497B
:10312000887304F0140020B10848807B10300749F0
:10313000887304F0030020B10448807B001D03491C
:10314000887300203EBD000009E3CA02740000201D
:103150003EB504466CB10EA1D1E900208968CDE9E5
:10316000002002916A4609214FF4976002F050FA5C
:103170003EBD0AA2D2E900109268CDE90102009199
:103180006A4609214FF4976002F042FAF0E7000026
:10319000B8AAB38DB4980D355D000000B8AAAAAAEC
:1031A000B088C3C5C700000038B5044664B1C0206C
:1031B0008DF80000C2208DF80100C4208DF80200B7
:1031C000C6208DF8030004E08B2204216846FDF739
:1031D0007FF96A46042140F6982002F019FA01F0BE
:1031E00003FE38BD10B5C8234FF48062024940F693
:1031F000F63001F08DFC10BD6A6A00082DE9F04F31
:103200008DB00746884615469946DDE9166B0024C1
:10321000002030806B49887B5A4605A901F044FDA7
:1032200018B1601E0DB0BDE8F08F6648807A00F0DE
:103230001400002867D09DF8140000069DF81510B2
:1032400040EA01409DF8161040EA01209DF8171051
:10325000084328609DF8180000069DF8191040EA00
:1032600001409DF81A1040EA01209DF81B10084308
:1032700068609DF81C0000069DF81D1040EA0140A2
:103280009DF81E1040EA01209DF81F100843A86019
:103290009DF8200000069DF8211040EA01409DF8AD
:1032A000221040EA01209DF823100843E86004F151
:1032B0001000C4B2286800140190686800140290DD
:1032C000A86800140390E868001404900198404333
:1032D000029901FB0100039901FB0100049901FB24
:1032E000010ABAF1706F02DBBAF1885F05DD01F007
:1032F0007BFD00203080401E94E7B6F9000040F4CA
:103300008070308000BF2F48807A00F0400020B3EA
:1033100005A9601C085C095D40EA012000B2A8F81C
:10332000000005A9E01C095C05AAA01C105C41EA8C
:10333000002000B2A8F8020005A9601D095C201D4C
:10334000105C41EA002000B2A8F80400A01DC4B23D
:10335000B6F9000040F0080030801A48408900F4B7
:10336000C07008B305A9601C085C095D40EA012033
:1033700000B2388005A9E01C095C05AAA01C105CFD
:1033800041EA002000B2788005A9601D095C201D7B
:10339000105C41EA002000B2B880A01DC4B2B6F9AA
:1033A000000040F0700030800648807A00F0030092
:1033B00018B105A90819FFF7FFFC484601F03AF8D3
:1033C00000202FE77400002070B588B0064601A8E1
:1033D00001F0F2F9BDF804000021C90341EA5045AB
:1033E000C4034448007A00F0030056F8200005901A
:1033F0004048007A00F0040010B105984042059062
:103400003C48007AC0F3C10056F8200006903948C5
:10341000007A00F0200010B106984042069035482E
:10342000007AC0F3811056F82000079031480089D7
:1034300000F4807010B10798404207900598C117BA
:10344000A0FB042301FB043100FB0510810041EACD
:10345000927005900698C117A0FB042301FB04316C
:1034600000FB0510810041EA927006900798C11791
:10347000A0FB042301FB043100FB0510810041EA9D
:10348000927007900598000E8DF808000598000CC2
:103490008DF809000598000A8DF80A000598C0B259
:1034A0008DF80B000698000E8DF80C000698000CA5
:1034B0008DF80D000698000A8DF80E000698C0B22F
:1034C0008DF80F000798000E8DF810000798000C7B
:1034D0008DF811000798000A8DF812000798C0B205
:1034E0008DF8130002AA0C214FF4257002F090F819
:1034F00008B070BD7400002030B585B0044616A237
:1035000007CA02AB07C3C82C03DD4FF0FF3005B07C
:1035100030BDC82090FBF4F0401E85B2280A8DF81B
:103520000000E8B28DF801006A46022140F2162040
:1035300002F06EF810B14FF0FF30E8E702AA0C215C
:1035400040F6C12002F064F810B14FF0FF30DEE722
:10355000044884810020DAE7FEF2ABC4AAF1DFDF81
:10356000BBAFDFDF740000201FB504464848007A77
:1035700000F0030054F8200001904548007A00F064
:10358000040010B10198404201904148007AC0F314
:10359000C10054F8200002903D48007A00F020005D
:1035A00010B10298404202903948007AC0F381106D
:1035B00054F8200003903648008900F4807010B160
:1035C0000398404203903349019880FB0101800F2A
:1035D00040EA810001902F49029880FB011082008F
:1035E00042EA917002902B49039880FB01108200FF
:1035F00042EA917003900198000E8DF80000019846
:10360000000C8DF801000198000A8DF80200019865
:10361000C0B28DF803006A4604214FF4747001F0C3
:10362000F7FF18B14FF0FF3004B010BD0298000E44
:103630008DF800000298000C8DF801000298000A35
:103640008DF802000298C0B28DF803006A4604218A
:103650004FF4757001F0DCFF10B14FF0FF30E3E77D
:103660000398000E8DF800000398000C8DF80100FF
:103670000398000A8DF802000398C0B28DF8030089
:103680006A4604214FF4767001F0C2FFCCE70000D7
:103690007400002009E3CA0210B586B0044647A0B2
:1036A0000068039046A00068029046A00068019060
:1036B00045A00068009004F0030003A9085C8DF8A1
:1036C000140003A8C4F3C101405C8DF8150003A8E1
:1036D000C4F38111405C8DF8160004F0030002A9C8
:1036E000085C8DF8100002A8C4F3C101405C8DF89D
:1036F000110002A8C4F38111405C8DF8120005AAE4
:10370000032140F2264001F083FF18B14FF0FF3053
:1037100006B010BD04AA032140F22A4001F078FF50
:1037200010B14FF0FF30F3E7019805900098049036
:1037300004F0040058B19DF8140040F001008DF829
:1037400014009DF8100040F001008DF8100004F006
:10375000200058B19DF8150040F001008DF81500CB
:103760009DF8110040F001008DF8110004F4807004
:1037700058B19DF8160040F001008DF816009DF834
:10378000120040F001008DF8120005AA03214FF449
:10379000886001F03DFF10B14FF0FF30B8E704AA98
:1037A000032140F2314001F033FF10B14FF0FF3000
:1037B000AEE7064804810020AAE700004CCD6C006B
:1037C0000CC92C0036567600264666007400002090
:1037D000F8B505460E464FF47A7095FBF0F000FB05
:1037E00006F4200E8DF80000200C8DF80100200A50
:1037F0008DF80200E0B28DF803006A4604214FF410
:10380000AE7001F005FFF8BD38B50446052094FB05
:10381000F0F084B220128DF80000E0B28DF80100C3
:103820006A4602214FF4AD7001F0F2FE38BD38B5A2
:103830000446052094FBF0F084B220128DF80000BD
:10384000E0B28DF801006A4602214FF4AC7001F03D
:10385000DFFE38BD38B504460020009004F00100BA
:1038600020B19DF8000040F03000009004F002000C
:1038700020B19DF8000040F00C00009004F004001E
:1038800020B19DF8000040F0030000906A4601213D
:103890004FF4A47001F0BCFE38BD38B50446012CCD
:1038A00001DA012402E0042C00DD0424601EC0B211
:1038B00000906A46012140F24F1001F0A9FE38BD88
:1038C0002DE9FC4706460F4606F0070010B1B7F594
:1038D000C86F03DD4FF0FF30BDE8FC87384602F0CB
:1038E00087FE8146594902F039FD8046684600F05E
:1038F0003DFF9DF80000022806D0042816D00828B5
:1039000026D0102848D135E04FF08D41404602F0D6
:10391000B7FE814602F034FE84B24D49404602F0C3
:10392000AFFE814602F02CFE85B238E04FF08C41AC
:10393000404602F0A5FE814602F022FE84B24549CF
:10394000404602F09DFE814602F01AFE85B226E056
:103950004FF08B41404602F093FE814602F010FE8C
:1039600084B23D49404602F08BFE814602F008FEDB
:1039700085B214E04FF08A41404602F081FE814654
:1039800002F0FEFD84B23549404602F079FE8146E0
:1039900002F0F6FD85B202E04FF0FF309CE700BF79
:1039A00020128DF80400E0B28DF8050028128DF881
:1039B0000600E8B28DF8070006F00100A0B101AAE8
:1039C00002214FF4EA7001F023FE10B14FF0FF30F6
:1039D00082E70DF1060202214FF4927001F018FE09
:1039E00010B14FF0FF3077E706F00200A0B101AA56
:1039F00002214FF4EC7001F00BFE10B14FF0FF30DC
:103A00006AE70DF1060202214FF4947001F000FE06
:103A100010B14FF0FF305FE706F00400A0B101AA3B
:103A200002214FF4EE7001F0F3FD10B14FF0FF30C2
:103A300052E70DF1060202214FF4967001F0E8FD05
:103A400010B14FF0FF3047E7002045E70000484342
:103A5000000040460000C045000040450000C04452
:103A600038B50446052094FBF0F085B228128DF895
:103A70000000E8B28DF801006A4602214FF4EF70B1
:103A800001F0C6FD38BD38B50446052094FBF0F0C2
:103A900085B228128DF80000E8B28DF801006A4660
:103AA00002214FF4ED7001F0B3FD38BD00BF054AAF
:103AB000128802F04002002AF9D0C2B2014B9A806B
:103AC00070470000005000407CB505462849496811
:103AD000087801AB04220D21FDF725FA08B1072073
:103AE0007CBD9DF80700C0F301109DF8041001F0A3
:103AF000E00140EAE1008DF800009DF80700C0F306
:103B000081009DF8051001F0E00140EAE1008DF828
:103B100001009DF8070000F003009DF8061001F079
:103B2000E00140EAE1008DF8020000241CE01DF8ED
:103B3000040018B9002045F8240013E00D4845F8AA
:103B4000240006E055F824000B4902F099FD45F8E1
:103B500024001DF80400401EC0B20DF80400002827
:103B6000F0D100BF601CC4B2032CE0DB0020B7E73B
:103B7000140000207B14AE3E1D5A843F2DE9F04F07
:103B800087B005460C46914601208DF810000020B4
:103B90008DF81100FE4A1268917CFD4A5268107837
:103BA00004AB0222FDF765FA20B14FF0FF3007B0F9
:103BB000BDE8F08FC820FFF753F900208DF8100002
:103BC000F34A1268D17BF24A5268107804AB0122A2
:103BD000FDF74FFA10B14FF0FF30E8E7EC4A1268FA
:103BE0005179EB4A5268107804AB0122FDF741FA93
:103BF00010B14FF0FF30DAE7E54A1268917CE44AF1
:103C00005268107804AB0122FDF733FA10B14FF07F
:103C1000FF30CCE7DE4A1268D17DDD4A5268107869
:103C200004AB0122FDF725FA10B14FF0FF30BEE7DB
:103C3000D74A12681179D64A5268107804AB01222B
:103C4000FDF717FA10B14FF0FF30B0E70C208DF8F8
:103C50001000CF4A12681179CD4A5268107804AB2F
:103C60000122FDF706FA10B14FF0FF309FE70F2059
:103C7000FFF7F6F8C648806A407A8DF81000C44A0B
:103C800012689178C24A5268107804AB0122FDF79D
:103C9000F0F910B14FF0FF3089E7BD48806A007A33
:103CA0008DF81000BA4A12685178B94A52681078F3
:103CB00004AB0122FDF7DDF910B14FF0FF3076E7DC
:103CC000B9F1000F07D0B248806A807A40F0E00076
:103CD0008DF8100004E0AE48806A807A8DF81000FC
:103CE000AB4A12689179AA4A5268107804AB012253
:103CF000FDF7BFF910B14FF0FF3058E7B9F1000FF1
:103D000007D0A348806AC07A40F0E0008DF8100028
:103D100003E0A048C07A8DF810009D4A1268D1795E
:103D20009B4A5268107804AB0122FDF7A2F910B14A
:103D30004FF0FF303BE7B9F1000F02D0C820FFF78A
:103D40008FF840208DF81000914A12681179904A3E
:103D50005268107804AB0122FDF78BF910B14FF0D7
:103D6000FF3024E778208DF81000894A12685179D5
:103D7000874A5268107804AB0122FDF77AF910B136
:103D80004FF0FF3013E783498889FFF769F8002077
:103D90008DF810007E4A126851797D4A5268107879
:103DA00004AB0122FDF765F910B14FF0FF30FEE6DC
:103DB000774A1268917A764A5268107804AB0222E8
:103DC000FDF7B1F810B14FF0FF30F0E69DF81100AB
:103DD0009DF8101040EA012B0C209BFBF0F0C6B2BE
:103DE0000020A86068602860A06060602060824653
:103DF00065E0674A1268D17A654A5268107804AB68
:103E00000C22FDF790F810B14FF0FF30CFE69DF88F
:103E100011009DF8101040EA012000B2ADF8080032
:103E20009DF813009DF8121040EA012000B2ADF891
:103E30000A009DF815009DF8141040EA012000B218
:103E4000ADF80C00BDF90810206808442060BDF9E9
:103E50000A10606808446060BDF90C10A06808444E
:103E6000A0609DF817009DF8161040EA012000B2EE
:103E7000ADF800009DF819009DF8181040EA0120E7
:103E800000B2ADF802009DF81B009DF81A1040EA40
:103E9000012000B2ADF80400BDF900102868084404
:103EA0002860BDF90210686808446860BDF9041014
:103EB000A8680844A8600AF1010000F0FF0AB245B2
:103EC00097DB3448D0F800C02868C117090441EADC
:103ED00010410704624600233846FCF79CF932463D
:103EE0000023CDE90201FCF796F928602948D0F8B3
:103EF00000C06868C117090441EA1041070462461E
:103F000000233846FCF787F932460023CDE9020149
:103F1000FCF781F968601F48D0F800C0A868C11795
:103F2000090441EA10410704624600233846FCF7C1
:103F300072F932460023CDE90201FCF76CF9A86062
:103F40001448D0F804C02168C817000440EA11489A
:103F50000F046246002338464146FCF75CF93246BE
:103F60000023CDE90201FCF756F920600948D0F89A
:103F700004C06068C117090441EA104107046246A1
:103F800000233846FCF747F93246002304E00000DE
:103F90001400002088760008CDE90201FCF73BF907
:103FA00060601148D0F804C0A068C117090441EA54
:103FB00010410704624600233846FCF72CF93246CC
:103FC0000023CDE90201FCF726F9A060A0680028D3
:103FD00004DDA068A0F58030A06003E0A06800F5D3
:103FE0008030A0600020E2E5887600082DE9FC5FC3
:103FF00006460F4600253D494968087801AB032273
:104000000D21FCF790FF10B10720BDE8FC9F9DF843
:10401000040000F01F008DF804009DF8050000F07A
:104020001F008DF805009DF8060000F01F008DF8B8
:104030000600002456E056F8240057F82410A0EBA0
:10404000010BBBF1000F01DB594601E0CBF1000190
:10405000084602F0B5FA4FF08F41009002F07EF969
:10406000814601A8005D68B32149086802F0C0FAE2
:10407000834659461F4802F071F9804604E01E4904
:10408000404602F0FDFA804601A8005D401EC0B225
:1040900001A908550028F2D14146484602F05EF9D0
:1040A00083464FF07E5102F0F3FB82462AF0004B2C
:1040B0000F488169584602F0AFFB12D20120A040A0
:1040C00005430EE00A480169484602F0A5FA05D307
:1040D00007484169484602F09FFB02D20120A040F8
:1040E0000543641C032CA6DB28468EE71400002041
:1040F0008876000800B04C4554E3853F10B504466F
:10410000204600F00FF80346E01C00F00BF843EAED
:10411000C00083B2A01D00F005F843EA801083B20E
:10412000184610BD014691F90020002A01DD00204B
:104130001EE091F90020002A01DA042018E091F92C
:104140000120002A01DD012012E091F90120002A5E
:1041500001DA05200CE091F90220002A01DD02209D
:1041600006E091F90220002A01DA062000E007208B
:10417000704700008EB00024A24600270020029065
:10418000FEF74CFE4FF4A060FCF7EAFFFCF79CFC46
:10419000FCF734FBFCF77AFCFDF764F80020FDF730
:1041A00001F80020FDF70CF8FCF740FE4FF4E13079
:1041B000FEF70AF94FF4E130FEF75EF94FF4E13013
:1041C000FEF7B8F9FDF7C0FFC72141F61F40FDF724
:1041D000C5FC0120182384A2002100900F20FDF7C8
:1041E000F5FA0120182382A21C2100900020FDF77F
:1041F000EDFAFDF7DDF840F24E218048FDF7D2FDE3
:104200004FF411717D48FDF7CFFD41F28830FEF784
:1042100027FE03E0FCF7AEFFFDF7CAF800F056FA00
:104220000028F7D1FCF7A6FFFDF7C2F80120102304
:1042300073A20F2100900020FDF7C8FA012010237F
:1042400071A21F2100900020FDF7C0FAFDF7B0F821
:1042500000206F490860C6E00BAA0CA90DA800F069
:1042600023F90028F7D108AA09A90AA8FCF742FCFB
:1042700005AA06A907A8FCF765FC01201021052363
:10428000CDE900100F2132200C9AFDF763F90120CF
:1042900010210523CDE900101F2132200B9AFDF7D4
:1042A00059F9FDF785F85B48008800F400400028C4
:1042B0004DD058480088C0F30D0800250CE0564842
:1042C000405D03A9485500BF40215448FDF7ABFFAE
:1042D0000128F9D1681C85B24545F0DB002607E0CE
:1042E00003A8805D00F00F0003A98855701C86B2FA
:1042F0004645F5DB9DF80C00092813D19DF80D000B
:10430000012807D19DF80F009DF80E100A2202FB2C
:10431000010407E09DF80F009DF80E100A2202FB31
:10432000010464429DF80C0007280DD19DF80D0092
:10433000642148439DF80E100A2202FB01009DF8FB
:104340000F1008440FFA80FA00203249088040F22A
:104350002711AAEB01008A4517D009DCBAF1AF0F8B
:104360000DD0BAF1E10F0CD0BAF1E60F15D10AE089
:1043700014280CD01E280ED037280ED109E00A27A9
:104380000DE00F270BE0142709E01E2707E0232785
:1043900005E0282703E02D2701E0002700BF00BF2C
:1043A000002C06DB4FF4117000EB84001FFA80FB39
:1043B00005E04FF4117000EB84001FFA80FB002F22
:1043C00005DB40F24E2000EB87001FFA80F94946DA
:1043D00013A0FBF745FF59460848FDF7E5FC4946A1
:1043E0000648FDF7DFFC37E757616974696E6700BF
:1043F000496E697469616C6973650000000400406E
:10440000524F4C4C3A0000005941573A000000000E
:10441000880121424A0000200405002000380140A4
:10442000616E676C655F726F6C6C3A2025640D0A73
:10443000000000007047000070B50446002624F01C
:104440000104184890F8240008B1002070BD1548F8
:10445000807A10B94FF0FF30F8E71248057C807A77
:104460002040104908740846007CA04202D04FF05A
:10447000FF3600E0002614B90A48007D18B101207B
:1044800001F050F902E0002001F04CF93CB100F0DD
:10449000ABFC20B1034805744FF0FF30D6E730463F
:1044A000D4E70000140000202DE9F04F99B0044635
:1044B0000D4616464FF07E574FF000084FF00009AA
:1044C0004FF0000A12A813A918AB0EAACDE90010EC
:1044D00014A916A8FEF792FE18B1012019B0BDE884
:1044E000F08FBDF84C0000F4807000287ED00E984C
:1044F00002F066F883464FF09D4101F02FFF07461A
:104500000F9802F05DF883464FF09D4101F026FFC1
:104510008046109802F054F883464FF09D4101F018
:104520001DFF8146119802F04BF883464FF09D41E4
:1045300001F014FF824639464FF0804002F0A0F8A7
:104540004946059002F09CF8414607904FF04040E4
:1045500002F096F85146059002F092F806900799FD
:1045600001F08EFE834601F05FFECDE90801FEF703
:104570001BF94FF06632544BCDE90A0101F07AFB8A
:10458000CDE90C0101F03CF9206049464FF0804034
:1045900002F076F84946029002F072F84146049023
:1045A0004FF0404002F06CF84146029002F068F88B
:1045B0000390049902F06CF983464FF07E5101F0AC
:1045C0005FFE059001F030FECDE9080139464FF05D
:1045D000804002F055F84146039002F051F84946F8
:1045E00004904FF0804002F04BF800E068E0514644
:1045F000039002F045F88346049901F041FE0590CE
:1046000001F012FECDE90601DDE90823FEF714FBF7
:104610004FF066322C4BCDE90A0101F02BFBCDE9BE
:104620000C0101F0EDF828605146504602F028F8E0
:1046300049460490484602F023F84146039040461C
:1046400002F01EF839460190384602F019F8009041
:10465000019901F015FE0290039902F019F98346C1
:10466000049902F015F9059001F0DEFDCDE908018D
:104670005146384602F004F849460490404601F09D
:10468000FFFF0390049901F0FBFD4FF0804105907E
:1046900001F0F6FF834601F0C7FDCDE90601DDE933
:1046A0000823FEF7C9FA4FF06632074BCDE90A013D
:1046B00001F0E0FACDE90C0101F0A2F8306001E070
:1046C00002200BE7002009E766A64C4070B50024E5
:1046D000FCF78CFA00F024F9002840D1782000F093
:1046E0002FFFC4B20CB1012070BD7820FFF7A4FEEB
:1046F000C4B20CB10220F7E7642000F0D3FEC4B2CC
:104700000CB10320F0E7FEF76DFDC4B20CB104203C
:10471000EAE71548FFF7F2FC0546FEF7BDFFC4B215
:104720000CB10520E0E740F27310FEF703FCC4B2C1
:104730000CB10620D8E76420FEF7DEFEC4B20CB14F
:104740000720D1E700F0A4FF04460CB10820CBE716
:10475000012000F0A3FDC4B21CB10920C4E70A2067
:10476000C2E70020C0E700004000002001461148D9
:10477000407A30B1012807D0022808D003280CD194
:1047800008E0022008700BE00420087008E0082010
:10479000087005E01020087002E04FF0FF3070470D
:1047A00000BF0448C07C18B108784006000E0870AD
:1047B0000020F4E71400002001461348407A30B18D
:1047C000012808D002280AD0032810D10BE04FF4AA
:1047D000804008800EE041F69C7008800AE04FF4AB
:1047E0008050088006E04FF40060088002E04FF03F
:1047F000FF30704700BF0448C07C10B108884010EB
:1048000008800020F5E7000014000020014602485F
:10481000007C0870002070471400002001460F48FB
:10482000007A30B1012807D0022809D003280FD11F
:104830000AE0FA2008800EE04FF4FA7008800AE0DF
:104840004FF47A70088006E04FF4FA60088002E0C6
:104850000020088000BF00BF002070471400002027
:1048600001460E48007A30B1012807D0022808D04E
:1048700003280CD108E00A4808600BE009480860EA
:1048800008E00948086005E00848086002E04FF0C9
:10489000FF30704700BF0020FBE70000140000203D
:1048A0000000034300008342333303423333834128
:1048B00001461248C07A082817D2DFE800F0170432
:1048C000070A0D101318BC20088013E0622008802E
:1048D00010E02A2008800DE0142008800AE00A2059
:1048E000088007E00520088004E000BF00BF00202A
:1048F000088000BF00BF00207047000014000020A7
:104900000146064890F8240010B14FF0FF30704780
:104910000248C08908800020F9E700001400002048
:104920001CB580208DF80000654A1268917C644AAD
:10493000526810786B460122FCF79BFB10B14FF0D8
:10494000FF301CBD6420FEF78BFA00208DF80000BC
:104950005B4A1268917C5A4A526810786B46012271
:10496000FCF787FB10B14FF0FF30EAE7544A1268BA
:10497000917D534A526810786B460622FCF7D3FAB1
:1049800010B14FF0FF30DCE79DF80500C007400F85
:104990009DF8031001F0010140EA41009DF801106B
:1049A00001F0010140EA010494B1012C03D101217D
:1049B0004348C17431E0022C03D100214048C17446
:1049C0002BE021463FA0FBF74BFC4FF0FF30B8E750
:1049D0003B4A1268D1783A4A526810786B460122F5
:1049E000FCF7A1FA10B14FF0FF30AAE79DF80000E4
:1049F00000F00F042CB93D48FBF732FC4FF0FF30BC
:104A00009FE7042C06D13AA0FBF72AFC01212C4891
:104A1000C17402E000212A48C174FF212848817234
:104A2000FF2027490872FF2125484172C1724FF6C5
:104A3000FF71C181FF21017481740121017380F82C
:104A40002210002180F82310417501751630016095
:104A500041608160163880F8241080F82510C184E8
:104A60004FF4FA6000F062FC10B14FF0FF3068E7DD
:104A7000022000F02BFB10B14FF0FF3061E72A203D
:104A800000F0CEFC10B14FF0FF305AE7322000F0BA
:104A900009FD10B14FF0FF3053E70020FFF7CCFCC9
:104AA00010B14FF0FF304CE7002000F051FB10B187
:104AB0004FF0FF3045E7002000F042FD002040E7C6
:104AC00014000020556E737570706F7274656420E9
:104AD000736F6674776172652070726F647563744A
:104AE000207265762025642E0A000000C895000813
:104AF00048616C662073656E736974697669747950
:104B0000207061727420666F756E642E0A0000005A
:104B10002DE9F04385B005460E4690469946294852
:104B200090F8250020B14FF0FF3005B0BDE8F083CC
:104B300016B94FF0FF30F8E7002423E0281B1028B7
:104B400001DD102000E0281B87B2321939462046CB
:104B500000F05EFD10B14FF0FF30E6E701AA3946E4
:104B6000204600F001F910B14FF0FF30DDE73019B9
:104B70003A4601A9FBF780FC10B16FF00100D4E7C1
:104B8000E01984B2AC42D9DB4FEA28208DF800004E
:104B900008F0FF008DF801000A4A1268917E094A68
:104BA000526810786B460222FCF763FA10B14FF09E
:104BB000FF30BAE70121034880F82510A0F82690BD
:104BC0000020B2E71400002038B50446282C02DD8E
:104BD0004FF0FF3038BDDCB9002000F0EBFB0020C7
:104BE0008DF8000007208DF801002E4A1268917C94
:104BF0002C4A526810786B460222FCF73AFA10B140
:104C00004FF0FF30E6E70021264801750020E1E77C
:104C1000012000F0CFFB20208DF80000012C06D1F0
:104C200000208DF80100052000F0FAFB17E0052CAC
:104C300006DC01208DF80100052000F0F1FB0EE0FC
:104C4000142C06DC02208DF801000A2000F0E8FB9D
:104C500005E003208DF80100142000F0E1FB9DF831
:104C60000100072101EB8010C0B28DF801000D4A50
:104C70001268917C0B4A526810786B460222FCF74E
:104C8000F8F910B14FF0FF30A4E708210548817210
:104C900000210173012101750020FFF7CDFB0020E9
:104CA00098E7000014000020F8B504460F461646A9
:104CB0002C4890F8240010B94FF0FF30F8BD294877
:104CC000807A10B94FF0FF30F8E7264A1268917ADF
:104CD000244A526810786B460222FCF724F910B17E
:104CE0004FF0FF30EAE79DF801009DF8001040EA20
:104CF0000125A54203DA00203070401EDEE7194886
:104D000040684088B5EB600F17DD164A1268517C89
:104D1000144A526810786B460122FCF704F910B16E
:104D20004FF0FF30CAE79DF8000000F0100020B1FE
:104D300000F05AF86FF00100C0E7E2B2094B1B68BF
:104D4000D97A084B5B6818783B46FCF7ECF810B151
:104D50004FF0FF30B2E795FBF4F0401E30700020BA
:104D6000ACE7000014000020F8B504460D461646D6
:104D700016B94FF0FF30F8BD1A48807A10B94FF0DD
:104D8000FF30F8E720128DF80000E0B28DF8010046
:104D90009DF801002844134949684989884202DD89
:104DA0004FF0FF30E7E70F4A1268117E0D4A526854
:104DB00010786B460222FCF75CF910B14FF0FF301F
:104DC000D9E7EAB2074B1B68597D064B5B68187838
:104DD0003346FCF7A8F810B14FF0FF30CBE70020C6
:104DE000C9E700001400002008B57048807A10B9A7
:104DF0004FF0FF3008BD002000906C4A1268D17B54
:104E00006A4A526810786B460122FCF732F910B1F9
:104E10004FF0FF30EEE7654A12685179634A5268F5
:104E200010786B460122FCF724F910B14FF0FF30E7
:104E3000E0E75E4A126811795C4A526810786B4666
:104E40000122FCF716F910B14FF0FF30D2E75748B6
:104E500090F82400002853D00C200090534A126888
:104E60001179524A526810786B460122FCF701F919
:104E700010B14FF0FF30BDE73220FDF7F1FFC02049
:104E800000904A48807A00F0010020B19DF80000AF
:104E900040F020000090454A12681179434A526858
:104EA00010786B460122FCF7E4F810B14FF0FF30A8
:104EB000A0E73E48407C10B10220009001E00020B5
:104EC00000903A4A1268D17B384A526810786B4693
:104ED0000122FCF7CEF810B14FF0FF308AE7002036
:104EE0000090324A12685179304A526810786B4605
:104EF0000122FCF7BEF8002855D04FF0FF3079E7CB
:104F000004200090294A12681179284A52681078C2
:104F10006B460122FCF7ADF810B14FF0FF3069E7A6
:104F20002248807C20B92148807A00F0010010B925
:104F30004020009001E0602000901C4A1268117926
:104F40001A4A526810786B460122FCF792F810B1A9
:104F50004FF0FF304EE73220FDF782FF1348407CD0
:104F600010B10120009001E0002000900F4A12686B
:104F7000D17B0E4A526810786B460122FCF779F813
:104F800010B14FF0FF3035E7084A12685179074AEF
:104F900052681078054B10330122FCF76AF810B103
:104FA0004FF0FF3026E7002024E700001400002027
:104FB0002DE9F04F8DB083460F4602200C904248F9
:104FC00090F8240020B1002000F068F9012600E0EC
:104FD000002603A8FFF722FC05A8FFF7C7FB01A8DE
:104FE000FFF766FC02A8FFF78BFC374890F80AA091
:104FF00004A8FFF70BFC002407E0002239465846BE
:10500000FEF7BCFD00B902E0641C022CF5DB00BF1A
:10501000022C01D1002528E0002407E0012206A986
:1050200009A8FEF7ABFD00B902E0641C022CF5DB19
:1050300000BF022C01D1002517E006A93846FDF774
:105040005FFB00F0FF0809A95846FEF7CFFF00F00C
:10505000FF090025B9F1000F01D145F00105B8F1B4
:10506000000F01D145F0020500BFFF20164908726C
:10507000FF2115484172C1724FF6FF71C181FF21B6
:105080008172017401210173BDF80C0000F04EF92A
:105090009DF8140000F01AF8BDF8040000F0C0F903
:1050A000BDF8080000F0FEF9504600F049FA9DF8FE
:1050B0001000FFF7C1F916B1012000F0EFF8284603
:1050C0000DB0BDE8F08F00001400002038B5044694
:1050D0001E48807A10B94FF0FF3038BD022C06D040
:1050E000042C07D0082C08D0102C0CD108E000208C
:1050F00000900BE00820009008E01020009005E0F0
:105100001820009002E04FF0FF30E6E700BF0F48A4
:10511000407A9DF80010B0EBE10F01D10020DCE7F0
:105120000A4A1268D179094A526810786B460122FE
:10513000FBF79FFF10B14FF0FF30CEE79DF8000066
:10514000C110024841720020C7E70000140000208F
:1051500038B504465048807CA04201D1002038BDBB
:10516000002C46D04C4A126811794B4A526810788C
:105170006B460122FBF7D7FE10B14FF0FF30EEE790
:105180009DF8000020F020000090434A1268117939
:10519000414A526810786B460122FBF76AFF10B152
:1051A0004FF0FF30DBE70320FDF75AFE02200090AE
:1051B000394890F8220020B19DF8000040F08000AE
:1051C0000090354890F8230020B19DF8000040F091
:1051D00030000090304A1268117D2F4A52681078D2
:1051E0006B460122FBF745FF002851D04FF0FF30FE
:1051F000B5E7294A12681179274A526810786B4638
:105200000122FBF790FE10B14FF0FF30A7E72248D4
:10521000807A00F0010028B19DF8000040F02000E5
:10522000009004E09DF8000020F0200000901A4A51
:1052300012681179184A526810786B460122FBF700
:1052400018FF10B14FF0FF3089E70320FDF708FE8B
:10525000114890F8220010B18020009001E0002059
:1052600000900D4890F8230020B19DF8000040F018
:1052700030000090084A1268117D074A5268107881
:105280006B460122FBF7F5FE10B14FF0FF3066E7E9
:1052900001488474002062E71400002038B50446F9
:1052A000214890F82400A04201D1002038BD24B349
:1052B0001D4890F8250010B94FF0FF30F6E70020A8
:1052C00000F030FA0020FFF743FF1749C88C00F0C8
:1052D000E9F8002000901449496808786B460122DB
:1052E0002321FBF7C6FE01210F4880F8241001207E
:1052F00000F018FAFFF778FD13E0002000F012FA32
:105300000948007C00900849496808786B460122EA
:105310002321FBF7AEFE0021034880F82410FFF79D
:1053200063FD0020C2E700001400002038B50446E9
:105330001F48807A10B94FF0FF3038BDFA2C09D0E1
:10534000B4F5FA7F09D0B4F57A7F09D0B4F5FA6FD5
:105350000CD108E0002000900BE00820009008E04D
:105360001020009005E01820009002E04FF0FF3080
:10537000E3E700BF0E48007A9DF80010B0EBE10FA4
:1053800001D10020D9E70A4A12689179084A526887
:1053900010786B460122FBF76CFE10B14FF0FF3026
:1053A000CBE79DF80000C010014908720020C4E757
:1053B0001400002038B50446184890F82300A04295
:1053C00001D1002038BD14B13020009001E0002050
:1053D00000901248807C20B19DF8000040F002004F
:1053E00000900E4890F8220020B19DF8000040F097
:1053F00080000090094A1268117D084A52681078AE
:105400006B460122FBF735FE10B14FF0FF30D9E7B4
:10541000024880F823400020D4E700001400002058
:1054200038B504461E48807A10B94FF0FF3038BDB9
:10543000BC2C02DB0120009015E0622C02DB022074
:10544000009010E02A2C02DB032000900BE0142CCB
:1054500002DB0420009006E00A2C02DB052000900D
:1054600001E0062000900E48C07A9DF800108842A6
:1054700001D10020DBE70A4A12689178084A526895
:1054800010786B460122FBF7F4FD10B14FF0FF30AE
:10549000CDE79DF800100248C1720020C7E7000068
:1054A0001400002038B504462448807A10B94FF023
:1054B000FF3038BD214890F8240010B14FF0FF3084
:1054C000F7E71E48007D50B134B1282C04DCE0B26F
:1054D000FFF77AFB0020ECE70020FFF775FB042CB8
:1054E00001DA042404E0B4F57A7F01DD4FF47A7424
:1054F0004FF47A7090FBF4F0401EC0B200900F4A57
:10550000126851780D4A526810786B460122FBF7F9
:10551000B0FD10B14FF0FF30CBE79DF80000401C0C
:105520004FF47A7191FBF0F081B20448C1810146D9
:10553000C9894810FFF774FF0020BAE71400002063
:1055400038B5044604F0700010B10120009005E069
:1055500014B10020009001E0402000902B4A126816
:10556000917C2A4A526810786B460122FBF781FD34
:1055700020B1002125488172481E38BD9DF80000E9
:1055800020F04001214801730020009004F0400009
:1055900020B99DF8000040F00400009004F02000C5
:1055A00020B99DF8000040F00200009004F01000C7
:1055B00020B99DF8000040F00100009004F00800C0
:1055C00020B99DF8000040F0380000900F4A1268A2
:1055D000D17C0E4A526810786B460122FBF749FDD8
:1055E00020B1002109488172481EC6E724B1082C69
:1055F00002D00020FFF7DEFE04488472002101750E
:105600003220FDF72DFC0020B7E700001400002039
:10561000F8B504460D46164616B94FF0FF30F8BDF2
:105620001A48807A10B94FF0FF30F8E720128DF851
:105630000000E0B28DF801009DF8010028441349F4
:1056400049684989884202DD4FF0FF30E7E70F4A99
:105650001268117E0D4A526810786B460222FBF7E1
:1056600008FD10B14FF0FF30D9E7EAB2074B1B68D5
:10567000597D064B5B6818783346FBF7FAFC10B18E
:105680004FF0FF30CBE70020C9E7000014000020F6
:1056900070B588B002A905A8FFF78AFC0446032C60
:1056A0003ED101A8FFF7DCF8059800F089FF064617
:1056B000019900F0E5FF054600F046FF05900698C9
:1056C00000F07EFF0646019900F0DAFF054600F083
:1056D0003BFF0690079800F073FF0646019900F023
:1056E000CFFF054600F030FF079005A8FDF73CFF0F
:1056F0006846FFF761F8BDF8001002984843029031
:10570000BDF80010039848430390BDF800100498BA
:105710004843049002A8FDF757FE002008B070BD72
:105720000120FBE738B50446214890F82400C0B1B9
:1057300014B10220009001E0002000901C4A126881
:10574000D17B1B4A526810786B460122FBF791FC13
:1057500010B14FF0FF3038BD9DF80010144841746F
:1057600023E01348807A10B94FF0FF30F3E724B1FB
:105770000F48407C08B10020EDE714B101200090F3
:1057800001E0002000900A4A1268D17B084A526862
:1057900010786B460122FBF76CFC10B14FF0FF3024
:1057A000D9E79DF80010024841740020D3E70000BB
:1057B000140000202DE9F04106460F4600F064FB7E
:1057C000041E0D4618BF0120284320F00040C0F100
:1057D0007F6000F1E040C00F0ED0301C18BF0120E8
:1057E000384320F00040C0F17F6000F1E040C00F7E
:1057F00004BF0120FAF7F4FE20462946BDE8F081F7
:1058000021F00042A2F16052B2F5801F01F0004386
:1058100028BFD2F17F6C0BD95FEA001C43EAC202B9
:1058200042EB507018BF704728BF20F0010070474E
:10583000B2F5801FBCBF184670474FEA410C1CF5FB
:10584000001F02D2084600F0E2BF70B500F0BCFABB
:1058500000000089FFF7F6BF4FF00040A0F5800080
:105860007047000010B591EA030F48BF83F0004372
:1058700000F1F883841A71EB030C05D2121943EB83
:105880000C03001B61EB0C01DFF824E14FEA11541B
:10589000A4EB135C1EEA430F18BF9EEA445F73D06B
:1058A00023EA0E03DCF1200E21EA045143F48013B5
:1058B00032D322FA0CFE10EB0E0023FA0CFE41EB61
:1058C0000E01CCF1200E03FA0EFE10EB0E0051F18A
:1058D0000001B1F5801FCCF1200E32D201EB045152
:1058E00012FA0EF2BDE8104058BF7047401C38BF96
:1058F0005FEA420218BF7047002814BF20F0010081
:1059000041F100014FEA410313F5001F38BF704712
:10591000A1F1C04100F0A6BA012A43EB0302ACF1A9
:10592000200CDCF11F0E32BF4FF0000E23FA0CF3F7
:1059300010EB030041EB0451B4EB115FD0D0A1EBAD
:10594000045101F5801149085FEA300001EB045170
:105950000ED350F1000038BF12FA0EFE08D1BDE898
:105960001040C9E7401C38BF5FEA4202CAD1C3E712
:10597000BDE810404FEA410313F5001F38BF7047E0
:10598000A1F1C04100F06EBA9EEA445F08D011EA6E
:105990005E0FBDE8104004BF01F0004100207047D9
:1059A000BDE8104070B500F00FFA00BF64FBBE3ECA
:1059B0000000E0FF02494FF0000000F0DEBF00BF32
:1059C0000000F87F2DE9C04130B4DFF8A0C23CEA06
:1059D000111418BF3CEA131400F0EC8081EA0305AF
:1059E0001CEA111444EAD57418BF1CEA131500F020
:1059F000C780A4EB05044FF0004545EAC12145EA04
:105A0000C32341EA505143EA525304F17F7499424F
:105A100004F500344FEAC0204FEAC22208BF90428A
:105A200000F09C804FEA13650FF24016765D4FEA56
:105A3000134506FB05F7C7F1807706FB07F74FEA2A
:105A4000D737A7FB03687642C8F58038A7FB06CE98
:105A500038BFA8F1010807FB08E64FF0000EA6FBCF
:105A6000028CE6FB03CEDCF1000CCEF1004E38BF19
:105A7000AEF1010EA6FB0C584FF000074FF00005E9
:105A8000E6FB0E87A1FB08C6A0FB07CE16EB0E06B1
:105A900045F10005E1FB076515F1E04E7EBFA4F579
:105AA00080345FEA46066D4116F1800745F1000536
:105AB0004FEA17274FEA066647EA0567A6F1DE4672
:105AC000B6F1805F4FEA15251FD9384624F0010C46
:105AD00005EBC471BCF1FE6F01EB0C1102D8F0BCF8
